{
    "_format": "hh-sol-artifact-1",
    "contractName": "Nftes",
    "sourceName": "contracts/Nftes.sol",
    "abi": [
        {
            "inputs": [],
            "stateMutability": "nonpayable",
            "type": "constructor"
        },
        {
            "anonymous": false,
            "inputs": [
                {
                    "indexed": true,
                    "internalType": "address",
                    "name": "owner",
                    "type": "address"
                },
                {
                    "indexed": true,
                    "internalType": "address",
                    "name": "approved",
                    "type": "address"
                },
                {
                    "indexed": true,
                    "internalType": "uint256",
                    "name": "tokenId",
                    "type": "uint256"
                }
            ],
            "name": "Approval",
            "type": "event"
        },
        {
            "anonymous": false,
            "inputs": [
                {
                    "indexed": true,
                    "internalType": "address",
                    "name": "owner",
                    "type": "address"
                },
                {
                    "indexed": true,
                    "internalType": "address",
                    "name": "operator",
                    "type": "address"
                },
                {
                    "indexed": false,
                    "internalType": "bool",
                    "name": "approved",
                    "type": "bool"
                }
            ],
            "name": "ApprovalForAll",
            "type": "event"
        },
        {
            "anonymous": false,
            "inputs": [
                {
                    "indexed": true,
                    "internalType": "address",
                    "name": "previousOwner",
                    "type": "address"
                },
                {
                    "indexed": true,
                    "internalType": "address",
                    "name": "newOwner",
                    "type": "address"
                }
            ],
            "name": "OwnershipTransferred",
            "type": "event"
        },
        {
            "anonymous": false,
            "inputs": [
                {
                    "indexed": true,
                    "internalType": "address",
                    "name": "from",
                    "type": "address"
                },
                {
                    "indexed": true,
                    "internalType": "address",
                    "name": "to",
                    "type": "address"
                },
                {
                    "indexed": true,
                    "internalType": "uint256",
                    "name": "tokenId",
                    "type": "uint256"
                }
            ],
            "name": "Transfer",
            "type": "event"
        },
        {
            "inputs": [
                {
                    "internalType": "address",
                    "name": "to",
                    "type": "address"
                },
                {
                    "internalType": "uint256",
                    "name": "tokenId",
                    "type": "uint256"
                }
            ],
            "name": "approve",
            "outputs": [],
            "stateMutability": "nonpayable",
            "type": "function"
        },
        {
            "inputs": [
                {
                    "internalType": "address",
                    "name": "owner",
                    "type": "address"
                }
            ],
            "name": "balanceOf",
            "outputs": [
                {
                    "internalType": "uint256",
                    "name": "",
                    "type": "uint256"
                }
            ],
            "stateMutability": "view",
            "type": "function"
        },
        {
            "inputs": [],
            "name": "cost",
            "outputs": [
                {
                    "internalType": "uint256",
                    "name": "",
                    "type": "uint256"
                }
            ],
            "stateMutability": "view",
            "type": "function"
        },
        {
            "inputs": [
                {
                    "internalType": "uint256",
                    "name": "tokenId",
                    "type": "uint256"
                }
            ],
            "name": "getApproved",
            "outputs": [
                {
                    "internalType": "address",
                    "name": "",
                    "type": "address"
                }
            ],
            "stateMutability": "view",
            "type": "function"
        },
        {
            "inputs": [],
            "name": "hiddenMetadataUri",
            "outputs": [
                {
                    "internalType": "string",
                    "name": "",
                    "type": "string"
                }
            ],
            "stateMutability": "view",
            "type": "function"
        },
        {
            "inputs": [
                {
                    "internalType": "address",
                    "name": "owner",
                    "type": "address"
                },
                {
                    "internalType": "address",
                    "name": "operator",
                    "type": "address"
                }
            ],
            "name": "isApprovedForAll",
            "outputs": [
                {
                    "internalType": "bool",
                    "name": "",
                    "type": "bool"
                }
            ],
            "stateMutability": "view",
            "type": "function"
        },
        {
            "inputs": [],
            "name": "maxMintAmountPerTx",
            "outputs": [
                {
                    "internalType": "uint256",
                    "name": "",
                    "type": "uint256"
                }
            ],
            "stateMutability": "view",
            "type": "function"
        },
        {
            "inputs": [],
            "name": "maxSupply",
            "outputs": [
                {
                    "internalType": "uint256",
                    "name": "",
                    "type": "uint256"
                }
            ],
            "stateMutability": "view",
            "type": "function"
        },
        {
            "inputs": [
                {
                    "internalType": "uint256",
                    "name": "_mintAmount",
                    "type": "uint256"
                }
            ],
            "name": "mint",
            "outputs": [],
            "stateMutability": "payable",
            "type": "function"
        },
        {
            "inputs": [
                {
                    "internalType": "uint256",
                    "name": "_mintAmount",
                    "type": "uint256"
                },
                {
                    "internalType": "address",
                    "name": "_receiver",
                    "type": "address"
                }
            ],
            "name": "mintForAddress",
            "outputs": [],
            "stateMutability": "nonpayable",
            "type": "function"
        },
        {
            "inputs": [],
            "name": "name",
            "outputs": [
                {
                    "internalType": "string",
                    "name": "",
                    "type": "string"
                }
            ],
            "stateMutability": "view",
            "type": "function"
        },
        {
            "inputs": [],
            "name": "owner",
            "outputs": [
                {
                    "internalType": "address",
                    "name": "",
                    "type": "address"
                }
            ],
            "stateMutability": "view",
            "type": "function"
        },
        {
            "inputs": [
                {
                    "internalType": "uint256",
                    "name": "tokenId",
                    "type": "uint256"
                }
            ],
            "name": "ownerOf",
            "outputs": [
                {
                    "internalType": "address",
                    "name": "",
                    "type": "address"
                }
            ],
            "stateMutability": "view",
            "type": "function"
        },
        {
            "inputs": [],
            "name": "paused",
            "outputs": [
                {
                    "internalType": "bool",
                    "name": "",
                    "type": "bool"
                }
            ],
            "stateMutability": "view",
            "type": "function"
        },
        {
            "inputs": [],
            "name": "renounceOwnership",
            "outputs": [],
            "stateMutability": "nonpayable",
            "type": "function"
        },
        {
            "inputs": [],
            "name": "revealed",
            "outputs": [
                {
                    "internalType": "bool",
                    "name": "",
                    "type": "bool"
                }
            ],
            "stateMutability": "view",
            "type": "function"
        },
        {
            "inputs": [
                {
                    "internalType": "address",
                    "name": "from",
                    "type": "address"
                },
                {
                    "internalType": "address",
                    "name": "to",
                    "type": "address"
                },
                {
                    "internalType": "uint256",
                    "name": "tokenId",
                    "type": "uint256"
                }
            ],
            "name": "safeTransferFrom",
            "outputs": [],
            "stateMutability": "nonpayable",
            "type": "function"
        },
        {
            "inputs": [
                {
                    "internalType": "address",
                    "name": "from",
                    "type": "address"
                },
                {
                    "internalType": "address",
                    "name": "to",
                    "type": "address"
                },
                {
                    "internalType": "uint256",
                    "name": "tokenId",
                    "type": "uint256"
                },
                {
                    "internalType": "bytes",
                    "name": "data",
                    "type": "bytes"
                }
            ],
            "name": "safeTransferFrom",
            "outputs": [],
            "stateMutability": "nonpayable",
            "type": "function"
        },
        {
            "inputs": [
                {
                    "internalType": "address",
                    "name": "operator",
                    "type": "address"
                },
                {
                    "internalType": "bool",
                    "name": "approved",
                    "type": "bool"
                }
            ],
            "name": "setApprovalForAll",
            "outputs": [],
            "stateMutability": "nonpayable",
            "type": "function"
        },
        {
            "inputs": [
                {
                    "internalType": "uint256",
                    "name": "_cost",
                    "type": "uint256"
                }
            ],
            "name": "setCost",
            "outputs": [],
            "stateMutability": "nonpayable",
            "type": "function"
        },
        {
            "inputs": [
                {
                    "internalType": "string",
                    "name": "_hiddenMetadataUri",
                    "type": "string"
                }
            ],
            "name": "setHiddenMetadataUri",
            "outputs": [],
            "stateMutability": "nonpayable",
            "type": "function"
        },
        {
            "inputs": [
                {
                    "internalType": "uint256",
                    "name": "_maxMintAmountPerTx",
                    "type": "uint256"
                }
            ],
            "name": "setMaxMintAmountPerTx",
            "outputs": [],
            "stateMutability": "nonpayable",
            "type": "function"
        },
        {
            "inputs": [
                {
                    "internalType": "bool",
                    "name": "_state",
                    "type": "bool"
                }
            ],
            "name": "setPaused",
            "outputs": [],
            "stateMutability": "nonpayable",
            "type": "function"
        },
        {
            "inputs": [
                {
                    "internalType": "bool",
                    "name": "_state",
                    "type": "bool"
                }
            ],
            "name": "setRevealed",
            "outputs": [],
            "stateMutability": "nonpayable",
            "type": "function"
        },
        {
            "inputs": [
                {
                    "internalType": "string",
                    "name": "_uriPrefix",
                    "type": "string"
                }
            ],
            "name": "setUriPrefix",
            "outputs": [],
            "stateMutability": "nonpayable",
            "type": "function"
        },
        {
            "inputs": [
                {
                    "internalType": "string",
                    "name": "_uriSuffix",
                    "type": "string"
                }
            ],
            "name": "setUriSuffix",
            "outputs": [],
            "stateMutability": "nonpayable",
            "type": "function"
        },
        {
            "inputs": [
                {
                    "internalType": "bytes4",
                    "name": "interfaceId",
                    "type": "bytes4"
                }
            ],
            "name": "supportsInterface",
            "outputs": [
                {
                    "internalType": "bool",
                    "name": "",
                    "type": "bool"
                }
            ],
            "stateMutability": "view",
            "type": "function"
        },
        {
            "inputs": [],
            "name": "symbol",
            "outputs": [
                {
                    "internalType": "string",
                    "name": "",
                    "type": "string"
                }
            ],
            "stateMutability": "view",
            "type": "function"
        },
        {
            "inputs": [
                {
                    "internalType": "uint256",
                    "name": "_tokenId",
                    "type": "uint256"
                }
            ],
            "name": "tokenURI",
            "outputs": [
                {
                    "internalType": "string",
                    "name": "",
                    "type": "string"
                }
            ],
            "stateMutability": "view",
            "type": "function"
        },
        {
            "inputs": [],
            "name": "totalSupply",
            "outputs": [
                {
                    "internalType": "uint256",
                    "name": "",
                    "type": "uint256"
                }
            ],
            "stateMutability": "view",
            "type": "function"
        },
        {
            "inputs": [
                {
                    "internalType": "address",
                    "name": "from",
                    "type": "address"
                },
                {
                    "internalType": "address",
                    "name": "to",
                    "type": "address"
                },
                {
                    "internalType": "uint256",
                    "name": "tokenId",
                    "type": "uint256"
                }
            ],
            "name": "transferFrom",
            "outputs": [],
            "stateMutability": "nonpayable",
            "type": "function"
        },
        {
            "inputs": [
                {
                    "internalType": "address",
                    "name": "newOwner",
                    "type": "address"
                }
            ],
            "name": "transferOwnership",
            "outputs": [],
            "stateMutability": "nonpayable",
            "type": "function"
        },
        {
            "inputs": [],
            "name": "uriPrefix",
            "outputs": [
                {
                    "internalType": "string",
                    "name": "",
                    "type": "string"
                }
            ],
            "stateMutability": "view",
            "type": "function"
        },
        {
            "inputs": [],
            "name": "uriSuffix",
            "outputs": [
                {
                    "internalType": "string",
                    "name": "",
                    "type": "string"
                }
            ],
            "stateMutability": "view",
            "type": "function"
        },
        {
            "inputs": [
                {
                    "internalType": "address",
                    "name": "_owner",
                    "type": "address"
                }
            ],
            "name": "walletOfOwner",
            "outputs": [
                {
                    "internalType": "uint256[]",
                    "name": "",
                    "type": "uint256[]"
                }
            ],
            "stateMutability": "view",
            "type": "function"
        },
        {
            "inputs": [],
            "name": "withdraw",
            "outputs": [],
            "stateMutability": "nonpayable",
            "type": "function"
        }
    ],
    "bytecode": "0x608060405260405180602001604052806000815250600890805190602001906200002b92919062000372565b506040518060400160405280600581526020017f2e6a736f6e000000000000000000000000000000000000000000000000000000815250600990805190602001906200007992919062000372565b506000600b55600a600c55600a600d556000600e60006101000a81548160ff0219169083151502179055506000600e60016101000a81548160ff021916908315150217905550348015620000cc57600080fd5b506040518060400160405280600e81526020017f4d6f6e646f6e676f7465737432320000000000000000000000000000000000008152506040518060400160405280600781526020017f505031323334320000000000000000000000000000000000000000000000000081525081600090805190602001906200015192919062000372565b5080600190805190602001906200016a92919062000372565b5050506200018d62000181620001bd60201b60201c565b620001c560201b60201c565b620001b760405180608001604052806041815260200162004125604191396200028b60201b60201c565b6200050a565b600033905090565b6000600660009054906101000a900473ffffffffffffffffffffffffffffffffffffffff16905081600660006101000a81548173ffffffffffffffffffffffffffffffffffffffff021916908373ffffffffffffffffffffffffffffffffffffffff1602179055508173ffffffffffffffffffffffffffffffffffffffff168173ffffffffffffffffffffffffffffffffffffffff167f8be0079c531659141344cd1fd0a4f28419497f9722a3daafe3b4186f6b6457e060405160405180910390a35050565b6200029b620002b760201b60201c565b80600a9080519060200190620002b392919062000372565b5050565b620002c7620001bd60201b60201c565b73ffffffffffffffffffffffffffffffffffffffff16620002ed6200034860201b60201c565b73ffffffffffffffffffffffffffffffffffffffff161462000346576040517f08c379a00000000000000000000000000000000000000000000000000000000081526004016200033d9062000449565b60405180910390fd5b565b6000600660009054906101000a900473ffffffffffffffffffffffffffffffffffffffff16905090565b82805462000380906200047c565b90600052602060002090601f016020900481019282620003a45760008555620003f0565b82601f10620003bf57805160ff1916838001178555620003f0565b82800160010185558215620003f0579182015b82811115620003ef578251825591602001919060010190620003d2565b5b509050620003ff919062000403565b5090565b5b808211156200041e57600081600090555060010162000404565b5090565b6000620004316020836200046b565b91506200043e82620004e1565b602082019050919050565b60006020820190508181036000830152620004648162000422565b9050919050565b600082825260208201905092915050565b600060028204905060018216806200049557607f821691505b60208210811415620004ac57620004ab620004b2565b5b50919050565b7f4e487b7100000000000000000000000000000000000000000000000000000000600052602260045260246000fd5b7f4f776e61626c653a2063616c6c6572206973206e6f7420746865206f776e6572600082015250565b613c0b806200051a6000396000f3fe60806040526004361061020f5760003560e01c80636352211e11610118578063a45ba8e7116100a0578063d5abeb011161006f578063d5abeb0114610768578063e0a8085314610793578063e985e9c5146107bc578063efbd73f4146107f9578063f2fde38b146108225761020f565b8063a45ba8e7146106ae578063b071401b146106d9578063b88d4fde14610702578063c87b56dd1461072b5761020f565b80638da5cb5b116100e75780638da5cb5b146105e857806394354fd01461061357806395d89b411461063e578063a0712d6814610669578063a22cb465146106855761020f565b80636352211e1461052e57806370a082311461056b578063715018a6146105a85780637ec4a659146105bf5761020f565b80633ccfd60b1161019b5780634fdd43cb1161016a5780634fdd43cb1461045957806351830227146104825780635503a0e8146104ad5780635c975abb146104d857806362b99ad4146105035761020f565b80633ccfd60b146103b357806342842e0e146103ca578063438b6300146103f357806344a0d68a146104305761020f565b806313faede6116101e257806313faede6146102e257806316ba10e01461030d57806316c38b3c1461033657806318160ddd1461035f57806323b872dd1461038a5761020f565b806301ffc9a71461021457806306fdde0314610251578063081812fc1461027c578063095ea7b3146102b9575b600080fd5b34801561022057600080fd5b5061023b600480360381019061023691906129da565b61084b565b604051610248919061300e565b60405180910390f35b34801561025d57600080fd5b5061026661092d565b6040516102739190613029565b60405180910390f35b34801561028857600080fd5b506102a3600480360381019061029e9190612a6d565b6109bf565b6040516102b09190612f85565b60405180910390f35b3480156102c557600080fd5b506102e060048036038101906102db9190612975565b610a05565b005b3480156102ee57600080fd5b506102f7610b1d565b604051610304919061328b565b60405180910390f35b34801561031957600080fd5b50610334600480360381019061032f9190612a2c565b610b23565b005b34801561034257600080fd5b5061035d600480360381019061035891906129b1565b610b45565b005b34801561036b57600080fd5b50610374610b6a565b604051610381919061328b565b60405180910390f35b34801561039657600080fd5b506103b160048036038101906103ac919061286f565b610b7b565b005b3480156103bf57600080fd5b506103c8610bdb565b005b3480156103d657600080fd5b506103f160048036038101906103ec919061286f565b610c63565b005b3480156103ff57600080fd5b5061041a6004803603810190610415919061280a565b610c83565b6040516104279190612fec565b60405180910390f35b34801561043c57600080fd5b5061045760048036038101906104529190612a6d565b610dda565b005b34801561046557600080fd5b50610480600480360381019061047b9190612a2c565b610dec565b005b34801561048e57600080fd5b50610497610e0e565b6040516104a4919061300e565b60405180910390f35b3480156104b957600080fd5b506104c2610e21565b6040516104cf9190613029565b60405180910390f35b3480156104e457600080fd5b506104ed610eaf565b6040516104fa919061300e565b60405180910390f35b34801561050f57600080fd5b50610518610ec2565b6040516105259190613029565b60405180910390f35b34801561053a57600080fd5b5061055560048036038101906105509190612a6d565b610f50565b6040516105629190612f85565b60405180910390f35b34801561057757600080fd5b50610592600480360381019061058d919061280a565b611002565b60405161059f919061328b565b60405180910390f35b3480156105b457600080fd5b506105bd6110ba565b005b3480156105cb57600080fd5b506105e660048036038101906105e19190612a2c565b6110ce565b005b3480156105f457600080fd5b506105fd6110f0565b60405161060a9190612f85565b60405180910390f35b34801561061f57600080fd5b5061062861111a565b604051610635919061328b565b60405180910390f35b34801561064a57600080fd5b50610653611120565b6040516106609190613029565b60405180910390f35b610683600480360381019061067e9190612a6d565b6111b2565b005b34801561069157600080fd5b506106ac60048036038101906106a79190612939565b611313565b005b3480156106ba57600080fd5b506106c3611329565b6040516106d09190613029565b60405180910390f35b3480156106e557600080fd5b5061070060048036038101906106fb9190612a6d565b6113b7565b005b34801561070e57600080fd5b50610729600480360381019061072491906128be565b6113c9565b005b34801561073757600080fd5b50610752600480360381019061074d9190612a6d565b61142b565b60405161075f9190613029565b60405180910390f35b34801561077457600080fd5b5061077d611584565b60405161078a919061328b565b60405180910390f35b34801561079f57600080fd5b506107ba60048036038101906107b591906129b1565b61158a565b005b3480156107c857600080fd5b506107e360048036038101906107de9190612833565b6115af565b6040516107f0919061300e565b60405180910390f35b34801561080557600080fd5b50610820600480360381019061081b9190612a96565b611643565b005b34801561082e57600080fd5b506108496004803603810190610844919061280a565b611705565b005b60007f80ac58cd000000000000000000000000000000000000000000000000000000007bffffffffffffffffffffffffffffffffffffffffffffffffffffffff1916827bffffffffffffffffffffffffffffffffffffffffffffffffffffffff1916148061091657507f5b5e139f000000000000000000000000000000000000000000000000000000007bffffffffffffffffffffffffffffffffffffffffffffffffffffffff1916827bffffffffffffffffffffffffffffffffffffffffffffffffffffffff1916145b80610926575061092582611789565b5b9050919050565b60606000805461093c90613594565b80601f016020809104026020016040519081016040528092919081815260200182805461096890613594565b80156109b55780601f1061098a576101008083540402835291602001916109b5565b820191906000526020600020905b81548152906001019060200180831161099857829003601f168201915b5050505050905090565b60006109ca826117f3565b6004600083815260200190815260200160002060009054906101000a900473ffffffffffffffffffffffffffffffffffffffff169050919050565b6000610a1082610f50565b90508073ffffffffffffffffffffffffffffffffffffffff168373ffffffffffffffffffffffffffffffffffffffff161415610a81576040517f08c379a0000000000000000000000000000000000000000000000000000000008152600401610a789061320b565b60405180910390fd5b8073ffffffffffffffffffffffffffffffffffffffff16610aa061183e565b73ffffffffffffffffffffffffffffffffffffffff161480610acf5750610ace81610ac961183e565b6115af565b5b610b0e576040517f08c379a0000000000000000000000000000000000000000000000000000000008152600401610b059061314b565b60405180910390fd5b610b188383611846565b505050565b600b5481565b610b2b6118ff565b8060099080519060200190610b4192919061262e565b5050565b610b4d6118ff565b80600e60006101000a81548160ff02191690831515021790555050565b6000610b76600761197d565b905090565b610b8c610b8661183e565b8261198b565b610bcb576040517f08c379a0000000000000000000000000000000000000000000000000000000008152600401610bc29061324b565b60405180910390fd5b610bd6838383611a20565b505050565b610be36118ff565b6000610bed6110f0565b73ffffffffffffffffffffffffffffffffffffffff1647604051610c1090612f70565b60006040518083038185875af1925050503d8060008114610c4d576040519150601f19603f3d011682016040523d82523d6000602084013e610c52565b606091505b5050905080610c6057600080fd5b50565b610c7e838383604051806020016040528060008152506113c9565b505050565b60606000610c9083611002565b905060008167ffffffffffffffff811115610cd4577f4e487b7100000000000000000000000000000000000000000000000000000000600052604160045260246000fd5b604051908082528060200260200182016040528015610d025781602001602082028036833780820191505090505b50905060006001905060005b8381108015610d1f5750600c548211155b15610dce576000610d2f83610f50565b90508673ffffffffffffffffffffffffffffffffffffffff168173ffffffffffffffffffffffffffffffffffffffff161415610dba5782848381518110610d9f577f4e487b7100000000000000000000000000000000000000000000000000000000600052603260045260246000fd5b6020026020010181815250508180610db6906135f7565b9250505b8280610dc5906135f7565b93505050610d0e565b82945050505050919050565b610de26118ff565b80600b8190555050565b610df46118ff565b80600a9080519060200190610e0a92919061262e565b5050565b600e60019054906101000a900460ff1681565b60098054610e2e90613594565b80601f0160208091040260200160405190810160405280929190818152602001828054610e5a90613594565b8015610ea75780601f10610e7c57610100808354040283529160200191610ea7565b820191906000526020600020905b815481529060010190602001808311610e8a57829003601f168201915b505050505081565b600e60009054906101000a900460ff1681565b60088054610ecf90613594565b80601f0160208091040260200160405190810160405280929190818152602001828054610efb90613594565b8015610f485780601f10610f1d57610100808354040283529160200191610f48565b820191906000526020600020905b815481529060010190602001808311610f2b57829003601f168201915b505050505081565b6000806002600084815260200190815260200160002060009054906101000a900473ffffffffffffffffffffffffffffffffffffffff169050600073ffffffffffffffffffffffffffffffffffffffff168173ffffffffffffffffffffffffffffffffffffffff161415610ff9576040517f08c379a0000000000000000000000000000000000000000000000000000000008152600401610ff0906131eb565b60405180910390fd5b80915050919050565b60008073ffffffffffffffffffffffffffffffffffffffff168273ffffffffffffffffffffffffffffffffffffffff161415611073576040517f08c379a000000000000000000000000000000000000000000000000000000000815260040161106a9061312b565b60405180910390fd5b600360008373ffffffffffffffffffffffffffffffffffffffff1673ffffffffffffffffffffffffffffffffffffffff168152602001908152602001600020549050919050565b6110c26118ff565b6110cc6000611c87565b565b6110d66118ff565b80600890805190602001906110ec92919061262e565b5050565b6000600660009054906101000a900473ffffffffffffffffffffffffffffffffffffffff16905090565b600d5481565b60606001805461112f90613594565b80601f016020809104026020016040519081016040528092919081815260200182805461115b90613594565b80156111a85780601f1061117d576101008083540402835291602001916111a8565b820191906000526020600020905b81548152906001019060200180831161118b57829003601f168201915b5050505050905090565b806000811180156111c55750600d548111155b611204576040517f08c379a00000000000000000000000000000000000000000000000000000000081526004016111fb906130cb565b60405180910390fd5b600c5481611212600761197d565b61121c91906133c9565b111561125d576040517f08c379a00000000000000000000000000000000000000000000000000000000081526004016112549061322b565b60405180910390fd5b6112656118ff565b600e60009054906101000a900460ff16156112b5576040517f08c379a00000000000000000000000000000000000000000000000000000000081526004016112ac906131ab565b60405180910390fd5b81600b546112c39190613450565b341015611305576040517f08c379a00000000000000000000000000000000000000000000000000000000081526004016112fc9061326b565b60405180910390fd5b61130f3383611d4d565b5050565b61132561131e61183e565b8383611d8d565b5050565b600a805461133690613594565b80601f016020809104026020016040519081016040528092919081815260200182805461136290613594565b80156113af5780601f10611384576101008083540402835291602001916113af565b820191906000526020600020905b81548152906001019060200180831161139257829003601f168201915b505050505081565b6113bf6118ff565b80600d8190555050565b6113da6113d461183e565b8361198b565b611419576040517f08c379a00000000000000000000000000000000000000000000000000000000081526004016114109061324b565b60405180910390fd5b61142584848484611efa565b50505050565b606061143682611f56565b611475576040517f08c379a000000000000000000000000000000000000000000000000000000000815260040161146c906131cb565b60405180910390fd5b60001515600e60019054906101000a900460ff161515141561152357600a805461149e90613594565b80601f01602080910402602001604051908101604052809291908181526020018280546114ca90613594565b80156115175780601f106114ec57610100808354040283529160200191611517565b820191906000526020600020905b8154815290600101906020018083116114fa57829003601f168201915b5050505050905061157f565b600061152d611fc2565b9050600081511161154d576040518060200160405280600081525061157b565b8061155784612054565b600960405160200161156b93929190612f3f565b6040516020818303038152906040525b9150505b919050565b600c5481565b6115926118ff565b80600e60016101000a81548160ff02191690831515021790555050565b6000600560008473ffffffffffffffffffffffffffffffffffffffff1673ffffffffffffffffffffffffffffffffffffffff16815260200190815260200160002060008373ffffffffffffffffffffffffffffffffffffffff1673ffffffffffffffffffffffffffffffffffffffff16815260200190815260200160002060009054906101000a900460ff16905092915050565b816000811180156116565750600d548111155b611695576040517f08c379a000000000000000000000000000000000000000000000000000000000815260040161168c906130cb565b60405180910390fd5b600c54816116a3600761197d565b6116ad91906133c9565b11156116ee576040517f08c379a00000000000000000000000000000000000000000000000000000000081526004016116e59061322b565b60405180910390fd5b6116f66118ff565b6117008284611d4d565b505050565b61170d6118ff565b600073ffffffffffffffffffffffffffffffffffffffff168173ffffffffffffffffffffffffffffffffffffffff16141561177d576040517f08c379a00000000000000000000000000000000000000000000000000000000081526004016117749061306b565b60405180910390fd5b61178681611c87565b50565b60007f01ffc9a7000000000000000000000000000000000000000000000000000000007bffffffffffffffffffffffffffffffffffffffffffffffffffffffff1916827bffffffffffffffffffffffffffffffffffffffffffffffffffffffff1916149050919050565b6117fc81611f56565b61183b576040517f08c379a0000000000000000000000000000000000000000000000000000000008152600401611832906131eb565b60405180910390fd5b50565b600033905090565b816004600083815260200190815260200160002060006101000a81548173ffffffffffffffffffffffffffffffffffffffff021916908373ffffffffffffffffffffffffffffffffffffffff160217905550808273ffffffffffffffffffffffffffffffffffffffff166118b983610f50565b73ffffffffffffffffffffffffffffffffffffffff167f8c5be1e5ebec7d5bd14f71427d1e84f3dd0314c0f7b2291e5b200ac8c7c3b92560405160405180910390a45050565b61190761183e565b73ffffffffffffffffffffffffffffffffffffffff166119256110f0565b73ffffffffffffffffffffffffffffffffffffffff161461197b576040517f08c379a00000000000000000000000000000000000000000000000000000000081526004016119729061318b565b60405180910390fd5b565b600081600001549050919050565b60008061199783610f50565b90508073ffffffffffffffffffffffffffffffffffffffff168473ffffffffffffffffffffffffffffffffffffffff1614806119d957506119d881856115af565b5b80611a1757508373ffffffffffffffffffffffffffffffffffffffff166119ff846109bf565b73ffffffffffffffffffffffffffffffffffffffff16145b91505092915050565b8273ffffffffffffffffffffffffffffffffffffffff16611a4082610f50565b73ffffffffffffffffffffffffffffffffffffffff1614611a96576040517f08c379a0000000000000000000000000000000000000000000000000000000008152600401611a8d9061308b565b60405180910390fd5b600073ffffffffffffffffffffffffffffffffffffffff168273ffffffffffffffffffffffffffffffffffffffff161415611b06576040517f08c379a0000000000000000000000000000000000000000000000000000000008152600401611afd906130eb565b60405180910390fd5b611b11838383612201565b611b1c600082611846565b6001600360008573ffffffffffffffffffffffffffffffffffffffff1673ffffffffffffffffffffffffffffffffffffffff1681526020019081526020016000206000828254611b6c91906134aa565b925050819055506001600360008473ffffffffffffffffffffffffffffffffffffffff1673ffffffffffffffffffffffffffffffffffffffff1681526020019081526020016000206000828254611bc391906133c9565b92505081905550816002600083815260200190815260200160002060006101000a81548173ffffffffffffffffffffffffffffffffffffffff021916908373ffffffffffffffffffffffffffffffffffffffff160217905550808273ffffffffffffffffffffffffffffffffffffffff168473ffffffffffffffffffffffffffffffffffffffff167fddf252ad1be2c89b69c2b068fc378daa952ba7f163c4a11628f55a4df523b3ef60405160405180910390a4611c82838383612206565b505050565b6000600660009054906101000a900473ffffffffffffffffffffffffffffffffffffffff16905081600660006101000a81548173ffffffffffffffffffffffffffffffffffffffff021916908373ffffffffffffffffffffffffffffffffffffffff1602179055508173ffffffffffffffffffffffffffffffffffffffff168173ffffffffffffffffffffffffffffffffffffffff167f8be0079c531659141344cd1fd0a4f28419497f9722a3daafe3b4186f6b6457e060405160405180910390a35050565b60005b81811015611d8857611d62600761220b565b611d7583611d70600761197d565b612221565b8080611d80906135f7565b915050611d50565b505050565b8173ffffffffffffffffffffffffffffffffffffffff168373ffffffffffffffffffffffffffffffffffffffff161415611dfc576040517f08c379a0000000000000000000000000000000000000000000000000000000008152600401611df39061310b565b60405180910390fd5b80600560008573ffffffffffffffffffffffffffffffffffffffff1673ffffffffffffffffffffffffffffffffffffffff16815260200190815260200160002060008473ffffffffffffffffffffffffffffffffffffffff1673ffffffffffffffffffffffffffffffffffffffff16815260200190815260200160002060006101000a81548160ff0219169083151502179055508173ffffffffffffffffffffffffffffffffffffffff168373ffffffffffffffffffffffffffffffffffffffff167f17307eab39ab6107e8899845ad3d59bd9653f200f220920489ca2b5937696c3183604051611eed919061300e565b60405180910390a3505050565b611f05848484611a20565b611f118484848461223f565b611f50576040517f08c379a0000000000000000000000000000000000000000000000000000000008152600401611f479061304b565b60405180910390fd5b50505050565b60008073ffffffffffffffffffffffffffffffffffffffff166002600084815260200190815260200160002060009054906101000a900473ffffffffffffffffffffffffffffffffffffffff1673ffffffffffffffffffffffffffffffffffffffff1614159050919050565b606060088054611fd190613594565b80601f0160208091040260200160405190810160405280929190818152602001828054611ffd90613594565b801561204a5780601f1061201f5761010080835404028352916020019161204a565b820191906000526020600020905b81548152906001019060200180831161202d57829003601f168201915b5050505050905090565b6060600082141561209c576040518060400160405280600181526020017f300000000000000000000000000000000000000000000000000000000000000081525090506121fc565b600082905060005b600082146120ce5780806120b7906135f7565b915050600a826120c7919061341f565b91506120a4565b60008167ffffffffffffffff811115612110577f4e487b7100000000000000000000000000000000000000000000000000000000600052604160045260246000fd5b6040519080825280601f01601f1916602001820160405280156121425781602001600182028036833780820191505090505b5090505b600085146121f55760018261215b91906134aa565b9150600a8561216a9190613640565b603061217691906133c9565b60f81b8183815181106121b2577f4e487b7100000000000000000000000000000000000000000000000000000000600052603260045260246000fd5b60200101907effffffffffffffffffffffffffffffffffffffffffffffffffffffffffffff1916908160001a905350600a856121ee919061341f565b9450612146565b8093505050505b919050565b505050565b505050565b6001816000016000828254019250508190555050565b61223b8282604051806020016040528060008152506123d6565b5050565b60006122608473ffffffffffffffffffffffffffffffffffffffff16612431565b156123c9578373ffffffffffffffffffffffffffffffffffffffff1663150b7a0261228961183e565b8786866040518563ffffffff1660e01b81526004016122ab9493929190612fa0565b602060405180830381600087803b1580156122c557600080fd5b505af19250505080156122f657506040513d601f19601f820116820180604052508101906122f39190612a03565b60015b612379573d8060008114612326576040519150601f19603f3d011682016040523d82523d6000602084013e61232b565b606091505b50600081511415612371576040517f08c379a00000000000000000000000000000000000000000000000000000000081526004016123689061304b565b60405180910390fd5b805181602001fd5b63150b7a0260e01b7bffffffffffffffffffffffffffffffffffffffffffffffffffffffff1916817bffffffffffffffffffffffffffffffffffffffffffffffffffffffff1916149150506123ce565b600190505b949350505050565b6123e08383612454565b6123ed600084848461223f565b61242c576040517f08c379a00000000000000000000000000000000000000000000000000000000081526004016124239061304b565b60405180910390fd5b505050565b6000808273ffffffffffffffffffffffffffffffffffffffff163b119050919050565b600073ffffffffffffffffffffffffffffffffffffffff168273ffffffffffffffffffffffffffffffffffffffff1614156124c4576040517f08c379a00000000000000000000000000000000000000000000000000000000081526004016124bb9061316b565b60405180910390fd5b6124cd81611f56565b1561250d576040517f08c379a0000000000000000000000000000000000000000000000000000000008152600401612504906130ab565b60405180910390fd5b61251960008383612201565b6001600360008473ffffffffffffffffffffffffffffffffffffffff1673ffffffffffffffffffffffffffffffffffffffff168152602001908152602001600020600082825461256991906133c9565b92505081905550816002600083815260200190815260200160002060006101000a81548173ffffffffffffffffffffffffffffffffffffffff021916908373ffffffffffffffffffffffffffffffffffffffff160217905550808273ffffffffffffffffffffffffffffffffffffffff16600073ffffffffffffffffffffffffffffffffffffffff167fddf252ad1be2c89b69c2b068fc378daa952ba7f163c4a11628f55a4df523b3ef60405160405180910390a461262a60008383612206565b5050565b82805461263a90613594565b90600052602060002090601f01602090048101928261265c57600085556126a3565b82601f1061267557805160ff19168380011785556126a3565b828001600101855582156126a3579182015b828111156126a2578251825591602001919060010190612687565b5b5090506126b091906126b4565b5090565b5b808211156126cd5760008160009055506001016126b5565b5090565b60006126e46126df846132cb565b6132a6565b9050828152602081018484840111156126fc57600080fd5b612707848285613552565b509392505050565b600061272261271d846132fc565b6132a6565b90508281526020810184848401111561273a57600080fd5b612745848285613552565b509392505050565b60008135905061275c81613b79565b92915050565b60008135905061277181613b90565b92915050565b60008135905061278681613ba7565b92915050565b60008151905061279b81613ba7565b92915050565b600082601f8301126127b257600080fd5b81356127c28482602086016126d1565b91505092915050565b600082601f8301126127dc57600080fd5b81356127ec84826020860161270f565b91505092915050565b60008135905061280481613bbe565b92915050565b60006020828403121561281c57600080fd5b600061282a8482850161274d565b91505092915050565b6000806040838503121561284657600080fd5b60006128548582860161274d565b92505060206128658582860161274d565b9150509250929050565b60008060006060848603121561288457600080fd5b60006128928682870161274d565b93505060206128a38682870161274d565b92505060406128b4868287016127f5565b9150509250925092565b600080600080608085870312156128d457600080fd5b60006128e28782880161274d565b94505060206128f38782880161274d565b9350506040612904878288016127f5565b925050606085013567ffffffffffffffff81111561292157600080fd5b61292d878288016127a1565b91505092959194509250565b6000806040838503121561294c57600080fd5b600061295a8582860161274d565b925050602061296b85828601612762565b9150509250929050565b6000806040838503121561298857600080fd5b60006129968582860161274d565b92505060206129a7858286016127f5565b9150509250929050565b6000602082840312156129c357600080fd5b60006129d184828501612762565b91505092915050565b6000602082840312156129ec57600080fd5b60006129fa84828501612777565b91505092915050565b600060208284031215612a1557600080fd5b6000612a238482850161278c565b91505092915050565b600060208284031215612a3e57600080fd5b600082013567ffffffffffffffff811115612a5857600080fd5b612a64848285016127cb565b91505092915050565b600060208284031215612a7f57600080fd5b6000612a8d848285016127f5565b91505092915050565b60008060408385031215612aa957600080fd5b6000612ab7858286016127f5565b9250506020612ac88582860161274d565b9150509250929050565b6000612ade8383612f21565b60208301905092915050565b612af3816134de565b82525050565b6000612b0482613352565b612b0e8185613380565b9350612b198361332d565b8060005b83811015612b4a578151612b318882612ad2565b9750612b3c83613373565b925050600181019050612b1d565b5085935050505092915050565b612b60816134f0565b82525050565b6000612b718261335d565b612b7b8185613391565b9350612b8b818560208601613561565b612b948161372d565b840191505092915050565b6000612baa82613368565b612bb481856133ad565b9350612bc4818560208601613561565b612bcd8161372d565b840191505092915050565b6000612be382613368565b612bed81856133be565b9350612bfd818560208601613561565b80840191505092915050565b60008154612c1681613594565b612c2081866133be565b94506001821660008114612c3b5760018114612c4c57612c7f565b60ff19831686528186019350612c7f565b612c558561333d565b60005b83811015612c7757815481890152600182019150602081019050612c58565b838801955050505b50505092915050565b6000612c956032836133ad565b9150612ca08261373e565b604082019050919050565b6000612cb86026836133ad565b9150612cc38261378d565b604082019050919050565b6000612cdb6025836133ad565b9150612ce6826137dc565b604082019050919050565b6000612cfe601c836133ad565b9150612d098261382b565b602082019050919050565b6000612d216014836133ad565b9150612d2c82613854565b602082019050919050565b6000612d446024836133ad565b9150612d4f8261387d565b604082019050919050565b6000612d676019836133ad565b9150612d72826138cc565b602082019050919050565b6000612d8a6029836133ad565b9150612d95826138f5565b604082019050919050565b6000612dad603e836133ad565b9150612db882613944565b604082019050919050565b6000612dd06020836133ad565b9150612ddb82613993565b602082019050919050565b6000612df36020836133ad565b9150612dfe826139bc565b602082019050919050565b6000612e166017836133ad565b9150612e21826139e5565b602082019050919050565b6000612e39602f836133ad565b9150612e4482613a0e565b604082019050919050565b6000612e5c6018836133ad565b9150612e6782613a5d565b602082019050919050565b6000612e7f6021836133ad565b9150612e8a82613a86565b604082019050919050565b6000612ea26000836133a2565b9150612ead82613ad5565b600082019050919050565b6000612ec56014836133ad565b9150612ed082613ad8565b602082019050919050565b6000612ee8602e836133ad565b9150612ef382613b01565b604082019050919050565b6000612f0b6013836133ad565b9150612f1682613b50565b602082019050919050565b612f2a81613548565b82525050565b612f3981613548565b82525050565b6000612f4b8286612bd8565b9150612f578285612bd8565b9150612f638284612c09565b9150819050949350505050565b6000612f7b82612e95565b9150819050919050565b6000602082019050612f9a6000830184612aea565b92915050565b6000608082019050612fb56000830187612aea565b612fc26020830186612aea565b612fcf6040830185612f30565b8181036060830152612fe18184612b66565b905095945050505050565b600060208201905081810360008301526130068184612af9565b905092915050565b60006020820190506130236000830184612b57565b92915050565b600060208201905081810360008301526130438184612b9f565b905092915050565b6000602082019050818103600083015261306481612c88565b9050919050565b6000602082019050818103600083015261308481612cab565b9050919050565b600060208201905081810360008301526130a481612cce565b9050919050565b600060208201905081810360008301526130c481612cf1565b9050919050565b600060208201905081810360008301526130e481612d14565b9050919050565b6000602082019050818103600083015261310481612d37565b9050919050565b6000602082019050818103600083015261312481612d5a565b9050919050565b6000602082019050818103600083015261314481612d7d565b9050919050565b6000602082019050818103600083015261316481612da0565b9050919050565b6000602082019050818103600083015261318481612dc3565b9050919050565b600060208201905081810360008301526131a481612de6565b9050919050565b600060208201905081810360008301526131c481612e09565b9050919050565b600060208201905081810360008301526131e481612e2c565b9050919050565b6000602082019050818103600083015261320481612e4f565b9050919050565b6000602082019050818103600083015261322481612e72565b9050919050565b6000602082019050818103600083015261324481612eb8565b9050919050565b6000602082019050818103600083015261326481612edb565b9050919050565b6000602082019050818103600083015261328481612efe565b9050919050565b60006020820190506132a06000830184612f30565b92915050565b60006132b06132c1565b90506132bc82826135c6565b919050565b6000604051905090565b600067ffffffffffffffff8211156132e6576132e56136fe565b5b6132ef8261372d565b9050602081019050919050565b600067ffffffffffffffff821115613317576133166136fe565b5b6133208261372d565b9050602081019050919050565b6000819050602082019050919050565b60008190508160005260206000209050919050565b600081519050919050565b600081519050919050565b600081519050919050565b6000602082019050919050565b600082825260208201905092915050565b600082825260208201905092915050565b600081905092915050565b600082825260208201905092915050565b600081905092915050565b60006133d482613548565b91506133df83613548565b9250827fffffffffffffffffffffffffffffffffffffffffffffffffffffffffffffffff0382111561341457613413613671565b5b828201905092915050565b600061342a82613548565b915061343583613548565b925082613445576134446136a0565b5b828204905092915050565b600061345b82613548565b915061346683613548565b9250817fffffffffffffffffffffffffffffffffffffffffffffffffffffffffffffffff048311821515161561349f5761349e613671565b5b828202905092915050565b60006134b582613548565b91506134c083613548565b9250828210156134d3576134d2613671565b5b828203905092915050565b60006134e982613528565b9050919050565b60008115159050919050565b60007fffffffff0000000000000000000000000000000000000000000000000000000082169050919050565b600073ffffffffffffffffffffffffffffffffffffffff82169050919050565b6000819050919050565b82818337600083830152505050565b60005b8381101561357f578082015181840152602081019050613564565b8381111561358e576000848401525b50505050565b600060028204905060018216806135ac57607f821691505b602082108114156135c0576135bf6136cf565b5b50919050565b6135cf8261372d565b810181811067ffffffffffffffff821117156135ee576135ed6136fe565b5b80604052505050565b600061360282613548565b91507fffffffffffffffffffffffffffffffffffffffffffffffffffffffffffffffff82141561363557613634613671565b5b600182019050919050565b600061364b82613548565b915061365683613548565b925082613666576136656136a0565b5b828206905092915050565b7f4e487b7100000000000000000000000000000000000000000000000000000000600052601160045260246000fd5b7f4e487b7100000000000000000000000000000000000000000000000000000000600052601260045260246000fd5b7f4e487b7100000000000000000000000000000000000000000000000000000000600052602260045260246000fd5b7f4e487b7100000000000000000000000000000000000000000000000000000000600052604160045260246000fd5b6000601f19601f8301169050919050565b7f4552433732313a207472616e7366657220746f206e6f6e20455243373231526560008201527f63656976657220696d706c656d656e7465720000000000000000000000000000602082015250565b7f4f776e61626c653a206e6577206f776e657220697320746865207a65726f206160008201527f6464726573730000000000000000000000000000000000000000000000000000602082015250565b7f4552433732313a207472616e736665722066726f6d20696e636f72726563742060008201527f6f776e6572000000000000000000000000000000000000000000000000000000602082015250565b7f4552433732313a20746f6b656e20616c7265616479206d696e74656400000000600082015250565b7f496e76616c6964206d696e7420616d6f756e7421000000000000000000000000600082015250565b7f4552433732313a207472616e7366657220746f20746865207a65726f2061646460008201527f7265737300000000000000000000000000000000000000000000000000000000602082015250565b7f4552433732313a20617070726f766520746f2063616c6c657200000000000000600082015250565b7f4552433732313a2061646472657373207a65726f206973206e6f74206120766160008201527f6c6964206f776e65720000000000000000000000000000000000000000000000602082015250565b7f4552433732313a20617070726f76652063616c6c6572206973206e6f7420746f60008201527f6b656e206f776e6572206e6f7220617070726f76656420666f7220616c6c0000602082015250565b7f4552433732313a206d696e7420746f20746865207a65726f2061646472657373600082015250565b7f4f776e61626c653a2063616c6c6572206973206e6f7420746865206f776e6572600082015250565b7f54686520636f6e74726163742069732070617573656421000000000000000000600082015250565b7f4552433732314d657461646174613a2055524920717565727920666f72206e6f60008201527f6e6578697374656e7420746f6b656e0000000000000000000000000000000000602082015250565b7f4552433732313a20696e76616c696420746f6b656e2049440000000000000000600082015250565b7f4552433732313a20617070726f76616c20746f2063757272656e74206f776e6560008201527f7200000000000000000000000000000000000000000000000000000000000000602082015250565b50565b7f4d617820737570706c7920657863656564656421000000000000000000000000600082015250565b7f4552433732313a2063616c6c6572206973206e6f7420746f6b656e206f776e6560008201527f72206e6f7220617070726f766564000000000000000000000000000000000000602082015250565b7f496e73756666696369656e742066756e64732100000000000000000000000000600082015250565b613b82816134de565b8114613b8d57600080fd5b50565b613b99816134f0565b8114613ba457600080fd5b50565b613bb0816134fc565b8114613bbb57600080fd5b50565b613bc781613548565b8114613bd257600080fd5b5056fea2646970667358221220dedeb2dbbe1f34d3cc50a785393d4a8b61e22126a26a0fd120c0099be66b649664736f6c63430008010033697066733a2f2f516d63697350385a6b6b5846575746506452656b69585465343341796f4441587534574b395a5746566e483750792f68696464656e2e6a736f6e",
    "linkReferences": {},
    "deployedLinkReferences": {}
}