{
  "_format": "hh-sol-artifact-1",
  "contractName": "Nfts",
  "sourceName": "contracts/Nfts.sol",
  "abi": [
    {
      "inputs": [],
      "stateMutability": "nonpayable",
      "type": "constructor"
    },
    {
      "anonymous": false,
      "inputs": [
        {
          "indexed": true,
          "internalType": "address",
          "name": "account",
          "type": "address"
        },
        {
          "indexed": true,
          "internalType": "address",
          "name": "operator",
          "type": "address"
        },
        {
          "indexed": false,
          "internalType": "bool",
          "name": "approved",
          "type": "bool"
        }
      ],
      "name": "ApprovalForAll",
      "type": "event"
    },
    {
      "anonymous": false,
      "inputs": [
        {
          "indexed": true,
          "internalType": "address",
          "name": "previousOwner",
          "type": "address"
        },
        {
          "indexed": true,
          "internalType": "address",
          "name": "newOwner",
          "type": "address"
        }
      ],
      "name": "OwnershipTransferred",
      "type": "event"
    },
    {
      "anonymous": false,
      "inputs": [
        {
          "indexed": true,
          "internalType": "address",
          "name": "operator",
          "type": "address"
        },
        {
          "indexed": true,
          "internalType": "address",
          "name": "from",
          "type": "address"
        },
        {
          "indexed": true,
          "internalType": "address",
          "name": "to",
          "type": "address"
        },
        {
          "indexed": false,
          "internalType": "uint256[]",
          "name": "ids",
          "type": "uint256[]"
        },
        {
          "indexed": false,
          "internalType": "uint256[]",
          "name": "values",
          "type": "uint256[]"
        }
      ],
      "name": "TransferBatch",
      "type": "event"
    },
    {
      "anonymous": false,
      "inputs": [
        {
          "indexed": true,
          "internalType": "address",
          "name": "operator",
          "type": "address"
        },
        {
          "indexed": true,
          "internalType": "address",
          "name": "from",
          "type": "address"
        },
        {
          "indexed": true,
          "internalType": "address",
          "name": "to",
          "type": "address"
        },
        {
          "indexed": false,
          "internalType": "uint256",
          "name": "id",
          "type": "uint256"
        },
        {
          "indexed": false,
          "internalType": "uint256",
          "name": "value",
          "type": "uint256"
        }
      ],
      "name": "TransferSingle",
      "type": "event"
    },
    {
      "anonymous": false,
      "inputs": [
        {
          "indexed": false,
          "internalType": "string",
          "name": "value",
          "type": "string"
        },
        {
          "indexed": true,
          "internalType": "uint256",
          "name": "id",
          "type": "uint256"
        }
      ],
      "name": "URI",
      "type": "event"
    },
    {
      "inputs": [
        {
          "internalType": "address",
          "name": "account",
          "type": "address"
        },
        {
          "internalType": "uint256",
          "name": "id",
          "type": "uint256"
        }
      ],
      "name": "balanceOf",
      "outputs": [
        {
          "internalType": "uint256",
          "name": "",
          "type": "uint256"
        }
      ],
      "stateMutability": "view",
      "type": "function"
    },
    {
      "inputs": [
        {
          "internalType": "address[]",
          "name": "accounts",
          "type": "address[]"
        },
        {
          "internalType": "uint256[]",
          "name": "ids",
          "type": "uint256[]"
        }
      ],
      "name": "balanceOfBatch",
      "outputs": [
        {
          "internalType": "uint256[]",
          "name": "",
          "type": "uint256[]"
        }
      ],
      "stateMutability": "view",
      "type": "function"
    },
    {
      "inputs": [
        {
          "internalType": "uint256",
          "name": "_id",
          "type": "uint256"
        },
        {
          "internalType": "uint256",
          "name": "_amount",
          "type": "uint256"
        }
      ],
      "name": "burn",
      "outputs": [],
      "stateMutability": "nonpayable",
      "type": "function"
    },
    {
      "inputs": [
        {
          "internalType": "uint256[]",
          "name": "_ids",
          "type": "uint256[]"
        },
        {
          "internalType": "uint256[]",
          "name": "_amounts",
          "type": "uint256[]"
        }
      ],
      "name": "burnBatch",
      "outputs": [],
      "stateMutability": "nonpayable",
      "type": "function"
    },
    {
      "inputs": [
        {
          "internalType": "address",
          "name": "_from",
          "type": "address"
        },
        {
          "internalType": "uint256[]",
          "name": "_burnIds",
          "type": "uint256[]"
        },
        {
          "internalType": "uint256[]",
          "name": "_burnAmounts",
          "type": "uint256[]"
        },
        {
          "internalType": "uint256[]",
          "name": "_mintIds",
          "type": "uint256[]"
        },
        {
          "internalType": "uint256[]",
          "name": "_mintAmounts",
          "type": "uint256[]"
        }
      ],
      "name": "burnForMint",
      "outputs": [],
      "stateMutability": "nonpayable",
      "type": "function"
    },
    {
      "inputs": [
        {
          "internalType": "address",
          "name": "account",
          "type": "address"
        },
        {
          "internalType": "address",
          "name": "operator",
          "type": "address"
        }
      ],
      "name": "isApprovedForAll",
      "outputs": [
        {
          "internalType": "bool",
          "name": "",
          "type": "bool"
        }
      ],
      "stateMutability": "view",
      "type": "function"
    },
    {
      "inputs": [
        {
          "internalType": "address",
          "name": "_to",
          "type": "address"
        },
        {
          "internalType": "uint256",
          "name": "_id",
          "type": "uint256"
        },
        {
          "internalType": "uint256",
          "name": "_amount",
          "type": "uint256"
        }
      ],
      "name": "mint",
      "outputs": [],
      "stateMutability": "nonpayable",
      "type": "function"
    },
    {
      "inputs": [
        {
          "internalType": "address",
          "name": "_to",
          "type": "address"
        },
        {
          "internalType": "uint256[]",
          "name": "_ids",
          "type": "uint256[]"
        },
        {
          "internalType": "uint256[]",
          "name": "_amounts",
          "type": "uint256[]"
        }
      ],
      "name": "mintBatch",
      "outputs": [],
      "stateMutability": "nonpayable",
      "type": "function"
    },
    {
      "inputs": [],
      "name": "name",
      "outputs": [
        {
          "internalType": "string",
          "name": "",
          "type": "string"
        }
      ],
      "stateMutability": "view",
      "type": "function"
    },
    {
      "inputs": [],
      "name": "owner",
      "outputs": [
        {
          "internalType": "address",
          "name": "",
          "type": "address"
        }
      ],
      "stateMutability": "view",
      "type": "function"
    },
    {
      "inputs": [],
      "name": "renounceOwnership",
      "outputs": [],
      "stateMutability": "nonpayable",
      "type": "function"
    },
    {
      "inputs": [
        {
          "internalType": "address",
          "name": "from",
          "type": "address"
        },
        {
          "internalType": "address",
          "name": "to",
          "type": "address"
        },
        {
          "internalType": "uint256[]",
          "name": "ids",
          "type": "uint256[]"
        },
        {
          "internalType": "uint256[]",
          "name": "amounts",
          "type": "uint256[]"
        },
        {
          "internalType": "bytes",
          "name": "data",
          "type": "bytes"
        }
      ],
      "name": "safeBatchTransferFrom",
      "outputs": [],
      "stateMutability": "nonpayable",
      "type": "function"
    },
    {
      "inputs": [
        {
          "internalType": "address",
          "name": "from",
          "type": "address"
        },
        {
          "internalType": "address",
          "name": "to",
          "type": "address"
        },
        {
          "internalType": "uint256",
          "name": "id",
          "type": "uint256"
        },
        {
          "internalType": "uint256",
          "name": "amount",
          "type": "uint256"
        },
        {
          "internalType": "bytes",
          "name": "data",
          "type": "bytes"
        }
      ],
      "name": "safeTransferFrom",
      "outputs": [],
      "stateMutability": "nonpayable",
      "type": "function"
    },
    {
      "inputs": [
        {
          "internalType": "address",
          "name": "operator",
          "type": "address"
        },
        {
          "internalType": "bool",
          "name": "approved",
          "type": "bool"
        }
      ],
      "name": "setApprovalForAll",
      "outputs": [],
      "stateMutability": "nonpayable",
      "type": "function"
    },
    {
      "inputs": [
        {
          "internalType": "uint256",
          "name": "_id",
          "type": "uint256"
        },
        {
          "internalType": "string",
          "name": "_uri",
          "type": "string"
        }
      ],
      "name": "setURI",
      "outputs": [],
      "stateMutability": "nonpayable",
      "type": "function"
    },
    {
      "inputs": [
        {
          "internalType": "bytes4",
          "name": "interfaceId",
          "type": "bytes4"
        }
      ],
      "name": "supportsInterface",
      "outputs": [
        {
          "internalType": "bool",
          "name": "",
          "type": "bool"
        }
      ],
      "stateMutability": "view",
      "type": "function"
    },
    {
      "inputs": [],
      "name": "symbol",
      "outputs": [
        {
          "internalType": "string",
          "name": "",
          "type": "string"
        }
      ],
      "stateMutability": "view",
      "type": "function"
    },
    {
      "inputs": [
        {
          "internalType": "uint256",
          "name": "",
          "type": "uint256"
        }
      ],
      "name": "tokenURI",
      "outputs": [
        {
          "internalType": "string",
          "name": "",
          "type": "string"
        }
      ],
      "stateMutability": "view",
      "type": "function"
    },
    {
      "inputs": [
        {
          "internalType": "address",
          "name": "newOwner",
          "type": "address"
        }
      ],
      "name": "transferOwnership",
      "outputs": [],
      "stateMutability": "nonpayable",
      "type": "function"
    },
    {
      "inputs": [
        {
          "internalType": "uint256",
          "name": "_id",
          "type": "uint256"
        }
      ],
      "name": "uri",
      "outputs": [
        {
          "internalType": "string",
          "name": "",
          "type": "string"
        }
      ],
      "stateMutability": "view",
      "type": "function"
    }
  ],
  "bytecode": "0x60806040523480156200001157600080fd5b50604051806020016040528060008152506200003381620000f660201b60201c565b5062000054620000486200011260201b60201c565b6200011a60201b60201c565b6040518060400160405280601f81526020017f5265667565727a6f20646520696e66696e69646164657320707275656261610081525060049080519060200190620000a1929190620001e0565b506040518060400160405280600681526020017f524449503131000000000000000000000000000000000000000000000000000081525060059080519060200190620000ef929190620001e0565b50620002f5565b80600290805190602001906200010e929190620001e0565b5050565b600033905090565b6000600360009054906101000a900473ffffffffffffffffffffffffffffffffffffffff16905081600360006101000a81548173ffffffffffffffffffffffffffffffffffffffff021916908373ffffffffffffffffffffffffffffffffffffffff1602179055508173ffffffffffffffffffffffffffffffffffffffff168173ffffffffffffffffffffffffffffffffffffffff167f8be0079c531659141344cd1fd0a4f28419497f9722a3daafe3b4186f6b6457e060405160405180910390a35050565b828054620001ee9062000290565b90600052602060002090601f0160209004810192826200021257600085556200025e565b82601f106200022d57805160ff19168380011785556200025e565b828001600101855582156200025e579182015b828111156200025d57825182559160200191906001019062000240565b5b5090506200026d919062000271565b5090565b5b808211156200028c57600081600090555060010162000272565b5090565b60006002820490506001821680620002a957607f821691505b60208210811415620002c057620002bf620002c6565b5b50919050565b7f4e487b7100000000000000000000000000000000000000000000000000000000600052602260045260246000fd5b61400480620003056000396000f3fe608060405234801561001057600080fd5b506004361061012b5760003560e01c8063862440e2116100ad578063c87b56dd11610071578063c87b56dd14610318578063d81d0a1514610348578063e985e9c514610364578063f242432a14610394578063f2fde38b146103b05761012b565b8063862440e2146102885780638da5cb5b146102a457806395d89b41146102c2578063a22cb465146102e0578063b390c0ab146102fc5761012b565b80632eb2c2d6116100f45780632eb2c2d6146101fa5780634e1273f414610216578063510f410414610246578063715018a61461026257806383ca4b6f1461026c5761012b565b8062fdd58e1461013057806301ffc9a71461016057806306fdde03146101905780630e89341c146101ae578063156e29f6146101de575b600080fd5b61014a60048036038101906101459190612e33565b6103cc565b6040516101579190613aec565b60405180910390f35b61017a60048036038101906101759190612f96565b610495565b60405161018791906138cf565b60405180910390f35b610198610577565b6040516101a591906138ea565b60405180910390f35b6101c860048036038101906101c39190612fe8565b610605565b6040516101d591906138ea565b60405180910390f35b6101f860048036038101906101f39190612e6f565b6106aa565b005b610214600480360381019061020f9190612b53565b610746565b005b610230600480360381019061022b9190612ebe565b6107e7565b60405161023d9190613876565b60405180910390f35b610260600480360381019061025b9190612d20565b610998565b005b61026a610a41565b005b61028660048036038101906102819190612f2a565b610ac9565b005b6102a2600480360381019061029d9190613011565b610b54565b005b6102ac610c34565b6040516102b99190613799565b60405180910390f35b6102ca610c5e565b6040516102d791906138ea565b60405180910390f35b6102fa60048036038101906102f59190612df7565b610cec565b005b61031660048036038101906103119190613065565b610d02565b005b610332600480360381019061032d9190612fe8565b610d8d565b60405161033f91906138ea565b60405180910390f35b610362600480360381019061035d9190612ca1565b610e2d565b005b61037e60048036038101906103799190612b17565b610ec9565b60405161038b91906138cf565b60405180910390f35b6103ae60048036038101906103a99190612c12565b610f5d565b005b6103ca60048036038101906103c59190612aee565b610ffe565b005b60008073ffffffffffffffffffffffffffffffffffffffff168373ffffffffffffffffffffffffffffffffffffffff16141561043d576040517f08c379a00000000000000000000000000000000000000000000000000000000081526004016104349061394c565b60405180910390fd5b60008083815260200190815260200160002060008473ffffffffffffffffffffffffffffffffffffffff1673ffffffffffffffffffffffffffffffffffffffff16815260200190815260200160002054905092915050565b60007fd9b67a26000000000000000000000000000000000000000000000000000000007bffffffffffffffffffffffffffffffffffffffffffffffffffffffff1916827bffffffffffffffffffffffffffffffffffffffffffffffffffffffff1916148061056057507f0e89341c000000000000000000000000000000000000000000000000000000007bffffffffffffffffffffffffffffffffffffffffffffffffffffffff1916827bffffffffffffffffffffffffffffffffffffffffffffffffffffffff1916145b80610570575061056f826110f6565b5b9050919050565b6004805461058490613d96565b80601f01602080910402602001604051908101604052809291908181526020018280546105b090613d96565b80156105fd5780601f106105d2576101008083540402835291602001916105fd565b820191906000526020600020905b8154815290600101906020018083116105e057829003601f168201915b505050505081565b606060066000838152602001908152602001600020805461062590613d96565b80601f016020809104026020016040519081016040528092919081815260200182805461065190613d96565b801561069e5780601f106106735761010080835404028352916020019161069e565b820191906000526020600020905b81548152906001019060200180831161068157829003601f168201915b50505050509050919050565b6106b2611160565b73ffffffffffffffffffffffffffffffffffffffff166106d0610c34565b73ffffffffffffffffffffffffffffffffffffffff1614610726576040517f08c379a000000000000000000000000000000000000000000000000000000000815260040161071d90613a4c565b60405180910390fd5b61074183838360405180602001604052806000815250611168565b505050565b61074e611160565b73ffffffffffffffffffffffffffffffffffffffff168573ffffffffffffffffffffffffffffffffffffffff16148061079457506107938561078e611160565b610ec9565b5b6107d3576040517f08c379a00000000000000000000000000000000000000000000000000000000081526004016107ca906139ec565b60405180910390fd5b6107e08585858585611319565b5050505050565b6060815183511461082d576040517f08c379a000000000000000000000000000000000000000000000000000000000815260040161082490613a8c565b60405180910390fd5b6000835167ffffffffffffffff811115610870577f4e487b7100000000000000000000000000000000000000000000000000000000600052604160045260246000fd5b60405190808252806020026020018201604052801561089e5781602001602082028036833780820191505090505b50905060005b845181101561098d576109378582815181106108e9577f4e487b7100000000000000000000000000000000000000000000000000000000600052603260045260246000fd5b602002602001015185838151811061092a577f4e487b7100000000000000000000000000000000000000000000000000000000600052603260045260246000fd5b60200260200101516103cc565b828281518110610970577f4e487b7100000000000000000000000000000000000000000000000000000000600052603260045260246000fd5b6020026020010181815250508061098690613dc8565b90506108a4565b508091505092915050565b6109a0611160565b73ffffffffffffffffffffffffffffffffffffffff166109be610c34565b73ffffffffffffffffffffffffffffffffffffffff1614610a14576040517f08c379a0000000000000000000000000000000000000000000000000000000008152600401610a0b90613a4c565b60405180910390fd5b610a1f858585611687565b610a3a858383604051806020016040528060008152506119a2565b5050505050565b610a49611160565b73ffffffffffffffffffffffffffffffffffffffff16610a67610c34565b73ffffffffffffffffffffffffffffffffffffffff1614610abd576040517f08c379a0000000000000000000000000000000000000000000000000000000008152600401610ab490613a4c565b60405180910390fd5b610ac76000611c1b565b565b610ad1611160565b73ffffffffffffffffffffffffffffffffffffffff16610aef610c34565b73ffffffffffffffffffffffffffffffffffffffff1614610b45576040517f08c379a0000000000000000000000000000000000000000000000000000000008152600401610b3c90613a4c565b60405180910390fd5b610b50338383611687565b5050565b610b5c611160565b73ffffffffffffffffffffffffffffffffffffffff16610b7a610c34565b73ffffffffffffffffffffffffffffffffffffffff1614610bd0576040517f08c379a0000000000000000000000000000000000000000000000000000000008152600401610bc790613a4c565b60405180910390fd5b80600660008481526020019081526020016000209080519060200190610bf79291906127e6565b50817f6bb7ff708619ba0610cba295a58592e0451dee2622938c8755667688daf3529b82604051610c2891906138ea565b60405180910390a25050565b6000600360009054906101000a900473ffffffffffffffffffffffffffffffffffffffff16905090565b60058054610c6b90613d96565b80601f0160208091040260200160405190810160405280929190818152602001828054610c9790613d96565b8015610ce45780601f10610cb957610100808354040283529160200191610ce4565b820191906000526020600020905b815481529060010190602001808311610cc757829003601f168201915b505050505081565b610cfe610cf7611160565b8383611ce1565b5050565b610d0a611160565b73ffffffffffffffffffffffffffffffffffffffff16610d28610c34565b73ffffffffffffffffffffffffffffffffffffffff1614610d7e576040517f08c379a0000000000000000000000000000000000000000000000000000000008152600401610d7590613a4c565b60405180910390fd5b610d89338383611e4e565b5050565b60066020528060005260406000206000915090508054610dac90613d96565b80601f0160208091040260200160405190810160405280929190818152602001828054610dd890613d96565b8015610e255780601f10610dfa57610100808354040283529160200191610e25565b820191906000526020600020905b815481529060010190602001808311610e0857829003601f168201915b505050505081565b610e35611160565b73ffffffffffffffffffffffffffffffffffffffff16610e53610c34565b73ffffffffffffffffffffffffffffffffffffffff1614610ea9576040517f08c379a0000000000000000000000000000000000000000000000000000000008152600401610ea090613a4c565b60405180910390fd5b610ec4838383604051806020016040528060008152506119a2565b505050565b6000600160008473ffffffffffffffffffffffffffffffffffffffff1673ffffffffffffffffffffffffffffffffffffffff16815260200190815260200160002060008373ffffffffffffffffffffffffffffffffffffffff1673ffffffffffffffffffffffffffffffffffffffff16815260200190815260200160002060009054906101000a900460ff16905092915050565b610f65611160565b73ffffffffffffffffffffffffffffffffffffffff168573ffffffffffffffffffffffffffffffffffffffff161480610fab5750610faa85610fa5611160565b610ec9565b5b610fea576040517f08c379a0000000000000000000000000000000000000000000000000000000008152600401610fe1906139ac565b60405180910390fd5b610ff78585858585612095565b5050505050565b611006611160565b73ffffffffffffffffffffffffffffffffffffffff16611024610c34565b73ffffffffffffffffffffffffffffffffffffffff161461107a576040517f08c379a000000000000000000000000000000000000000000000000000000000815260040161107190613a4c565b60405180910390fd5b600073ffffffffffffffffffffffffffffffffffffffff168173ffffffffffffffffffffffffffffffffffffffff1614156110ea576040517f08c379a00000000000000000000000000000000000000000000000000000000081526004016110e19061396c565b60405180910390fd5b6110f381611c1b565b50565b60007f01ffc9a7000000000000000000000000000000000000000000000000000000007bffffffffffffffffffffffffffffffffffffffffffffffffffffffff1916827bffffffffffffffffffffffffffffffffffffffffffffffffffffffff1916149050919050565b600033905090565b600073ffffffffffffffffffffffffffffffffffffffff168473ffffffffffffffffffffffffffffffffffffffff1614156111d8576040517f08c379a00000000000000000000000000000000000000000000000000000000081526004016111cf90613acc565b60405180910390fd5b60006111e2611160565b905060006111ef85612331565b905060006111fc85612331565b905061120d836000898585896123f7565b8460008088815260200190815260200160002060008973ffffffffffffffffffffffffffffffffffffffff1673ffffffffffffffffffffffffffffffffffffffff168152602001908152602001600020600082825461126c9190613c8a565b925050819055508673ffffffffffffffffffffffffffffffffffffffff16600073ffffffffffffffffffffffffffffffffffffffff168473ffffffffffffffffffffffffffffffffffffffff167fc3d58168c5ae7397731d063d5bbf3d657854427343f4c083240f7aacaa2d0f6289896040516112ea929190613b07565b60405180910390a4611301836000898585896123ff565b61131083600089898989612407565b50505050505050565b815183511461135d576040517f08c379a000000000000000000000000000000000000000000000000000000000815260040161135490613aac565b60405180910390fd5b600073ffffffffffffffffffffffffffffffffffffffff168473ffffffffffffffffffffffffffffffffffffffff1614156113cd576040517f08c379a00000000000000000000000000000000000000000000000000000000081526004016113c4906139cc565b60405180910390fd5b60006113d7611160565b90506113e78187878787876123f7565b60005b84518110156115e457600085828151811061142e577f4e487b7100000000000000000000000000000000000000000000000000000000600052603260045260246000fd5b602002602001015190506000858381518110611473577f4e487b7100000000000000000000000000000000000000000000000000000000600052603260045260246000fd5b60200260200101519050600080600084815260200190815260200160002060008b73ffffffffffffffffffffffffffffffffffffffff1673ffffffffffffffffffffffffffffffffffffffff16815260200190815260200160002054905081811015611514576040517f08c379a000000000000000000000000000000000000000000000000000000000815260040161150b90613a2c565b60405180910390fd5b81810360008085815260200190815260200160002060008c73ffffffffffffffffffffffffffffffffffffffff1673ffffffffffffffffffffffffffffffffffffffff168152602001908152602001600020819055508160008085815260200190815260200160002060008b73ffffffffffffffffffffffffffffffffffffffff1673ffffffffffffffffffffffffffffffffffffffff16815260200190815260200160002060008282546115c99190613c8a565b92505081905550505050806115dd90613dc8565b90506113ea565b508473ffffffffffffffffffffffffffffffffffffffff168673ffffffffffffffffffffffffffffffffffffffff168273ffffffffffffffffffffffffffffffffffffffff167f4a39dc06d4c0dbc64b70af90fd698a233a518aa5d07e595d983b8c0526c8f7fb878760405161165b929190613898565b60405180910390a46116718187878787876123ff565b61167f8187878787876125d7565b505050505050565b600073ffffffffffffffffffffffffffffffffffffffff168373ffffffffffffffffffffffffffffffffffffffff1614156116f7576040517f08c379a00000000000000000000000000000000000000000000000000000000081526004016116ee90613a0c565b60405180910390fd5b805182511461173b576040517f08c379a000000000000000000000000000000000000000000000000000000000815260040161173290613aac565b60405180910390fd5b6000611745611160565b9050611765818560008686604051806020016040528060008152506123f7565b60005b83518110156118fe5760008482815181106117ac577f4e487b7100000000000000000000000000000000000000000000000000000000600052603260045260246000fd5b6020026020010151905060008483815181106117f1577f4e487b7100000000000000000000000000000000000000000000000000000000600052603260045260246000fd5b60200260200101519050600080600084815260200190815260200160002060008973ffffffffffffffffffffffffffffffffffffffff1673ffffffffffffffffffffffffffffffffffffffff16815260200190815260200160002054905081811015611892576040517f08c379a00000000000000000000000000000000000000000000000000000000081526004016118899061398c565b60405180910390fd5b81810360008085815260200190815260200160002060008a73ffffffffffffffffffffffffffffffffffffffff1673ffffffffffffffffffffffffffffffffffffffff1681526020019081526020016000208190555050505080806118f690613dc8565b915050611768565b50600073ffffffffffffffffffffffffffffffffffffffff168473ffffffffffffffffffffffffffffffffffffffff168273ffffffffffffffffffffffffffffffffffffffff167f4a39dc06d4c0dbc64b70af90fd698a233a518aa5d07e595d983b8c0526c8f7fb8686604051611976929190613898565b60405180910390a461199c818560008686604051806020016040528060008152506123ff565b50505050565b600073ffffffffffffffffffffffffffffffffffffffff168473ffffffffffffffffffffffffffffffffffffffff161415611a12576040517f08c379a0000000000000000000000000000000000000000000000000000000008152600401611a0990613acc565b60405180910390fd5b8151835114611a56576040517f08c379a0000000000000000000000000000000000000000000000000000000008152600401611a4d90613aac565b60405180910390fd5b6000611a60611160565b9050611a71816000878787876123f7565b60005b8451811015611b7657838181518110611ab6577f4e487b7100000000000000000000000000000000000000000000000000000000600052603260045260246000fd5b6020026020010151600080878481518110611afa577f4e487b7100000000000000000000000000000000000000000000000000000000600052603260045260246000fd5b6020026020010151815260200190815260200160002060008873ffffffffffffffffffffffffffffffffffffffff1673ffffffffffffffffffffffffffffffffffffffff1681526020019081526020016000206000828254611b5c9190613c8a565b925050819055508080611b6e90613dc8565b915050611a74565b508473ffffffffffffffffffffffffffffffffffffffff16600073ffffffffffffffffffffffffffffffffffffffff168273ffffffffffffffffffffffffffffffffffffffff167f4a39dc06d4c0dbc64b70af90fd698a233a518aa5d07e595d983b8c0526c8f7fb8787604051611bee929190613898565b60405180910390a4611c05816000878787876123ff565b611c14816000878787876125d7565b5050505050565b6000600360009054906101000a900473ffffffffffffffffffffffffffffffffffffffff16905081600360006101000a81548173ffffffffffffffffffffffffffffffffffffffff021916908373ffffffffffffffffffffffffffffffffffffffff1602179055508173ffffffffffffffffffffffffffffffffffffffff168173ffffffffffffffffffffffffffffffffffffffff167f8be0079c531659141344cd1fd0a4f28419497f9722a3daafe3b4186f6b6457e060405160405180910390a35050565b8173ffffffffffffffffffffffffffffffffffffffff168373ffffffffffffffffffffffffffffffffffffffff161415611d50576040517f08c379a0000000000000000000000000000000000000000000000000000000008152600401611d4790613a6c565b60405180910390fd5b80600160008573ffffffffffffffffffffffffffffffffffffffff1673ffffffffffffffffffffffffffffffffffffffff16815260200190815260200160002060008473ffffffffffffffffffffffffffffffffffffffff1673ffffffffffffffffffffffffffffffffffffffff16815260200190815260200160002060006101000a81548160ff0219169083151502179055508173ffffffffffffffffffffffffffffffffffffffff168373ffffffffffffffffffffffffffffffffffffffff167f17307eab39ab6107e8899845ad3d59bd9653f200f220920489ca2b5937696c3183604051611e4191906138cf565b60405180910390a3505050565b600073ffffffffffffffffffffffffffffffffffffffff168373ffffffffffffffffffffffffffffffffffffffff161415611ebe576040517f08c379a0000000000000000000000000000000000000000000000000000000008152600401611eb590613a0c565b60405180910390fd5b6000611ec8611160565b90506000611ed584612331565b90506000611ee284612331565b9050611f02838760008585604051806020016040528060008152506123f7565b600080600087815260200190815260200160002060008873ffffffffffffffffffffffffffffffffffffffff1673ffffffffffffffffffffffffffffffffffffffff16815260200190815260200160002054905084811015611f99576040517f08c379a0000000000000000000000000000000000000000000000000000000008152600401611f909061398c565b60405180910390fd5b84810360008088815260200190815260200160002060008973ffffffffffffffffffffffffffffffffffffffff1673ffffffffffffffffffffffffffffffffffffffff16815260200190815260200160002081905550600073ffffffffffffffffffffffffffffffffffffffff168773ffffffffffffffffffffffffffffffffffffffff168573ffffffffffffffffffffffffffffffffffffffff167fc3d58168c5ae7397731d063d5bbf3d657854427343f4c083240f7aacaa2d0f628989604051612066929190613b07565b60405180910390a461208c848860008686604051806020016040528060008152506123ff565b50505050505050565b600073ffffffffffffffffffffffffffffffffffffffff168473ffffffffffffffffffffffffffffffffffffffff161415612105576040517f08c379a00000000000000000000000000000000000000000000000000000000081526004016120fc906139cc565b60405180910390fd5b600061210f611160565b9050600061211c85612331565b9050600061212985612331565b90506121398389898585896123f7565b600080600088815260200190815260200160002060008a73ffffffffffffffffffffffffffffffffffffffff1673ffffffffffffffffffffffffffffffffffffffff168152602001908152602001600020549050858110156121d0576040517f08c379a00000000000000000000000000000000000000000000000000000000081526004016121c790613a2c565b60405180910390fd5b85810360008089815260200190815260200160002060008b73ffffffffffffffffffffffffffffffffffffffff1673ffffffffffffffffffffffffffffffffffffffff168152602001908152602001600020819055508560008089815260200190815260200160002060008a73ffffffffffffffffffffffffffffffffffffffff1673ffffffffffffffffffffffffffffffffffffffff16815260200190815260200160002060008282546122859190613c8a565b925050819055508773ffffffffffffffffffffffffffffffffffffffff168973ffffffffffffffffffffffffffffffffffffffff168573ffffffffffffffffffffffffffffffffffffffff167fc3d58168c5ae7397731d063d5bbf3d657854427343f4c083240f7aacaa2d0f628a8a604051612302929190613b07565b60405180910390a4612318848a8a86868a6123ff565b612326848a8a8a8a8a612407565b505050505050505050565b60606000600167ffffffffffffffff811115612376577f4e487b7100000000000000000000000000000000000000000000000000000000600052604160045260246000fd5b6040519080825280602002602001820160405280156123a45781602001602082028036833780820191505090505b50905082816000815181106123e2577f4e487b7100000000000000000000000000000000000000000000000000000000600052603260045260246000fd5b60200260200101818152505080915050919050565b505050505050565b505050505050565b6124268473ffffffffffffffffffffffffffffffffffffffff166127a7565b156125cf578373ffffffffffffffffffffffffffffffffffffffff1663f23a6e6187878686866040518663ffffffff1660e01b815260040161246c95949392919061381c565b602060405180830381600087803b15801561248657600080fd5b505af19250505080156124b757506040513d601f19601f820116820180604052508101906124b49190612fbf565b60015b612546576124c3613ebc565b806124ce575061250b565b806040517f08c379a000000000000000000000000000000000000000000000000000000000815260040161250291906138ea565b60405180910390fd5b6040517f08c379a000000000000000000000000000000000000000000000000000000000815260040161253d9061390c565b60405180910390fd5b63f23a6e6160e01b7bffffffffffffffffffffffffffffffffffffffffffffffffffffffff1916817bffffffffffffffffffffffffffffffffffffffffffffffffffffffff1916146125cd576040517f08c379a00000000000000000000000000000000000000000000000000000000081526004016125c49061392c565b60405180910390fd5b505b505050505050565b6125f68473ffffffffffffffffffffffffffffffffffffffff166127a7565b1561279f578373ffffffffffffffffffffffffffffffffffffffff1663bc197c8187878686866040518663ffffffff1660e01b815260040161263c9594939291906137b4565b602060405180830381600087803b15801561265657600080fd5b505af192505050801561268757506040513d601f19601f820116820180604052508101906126849190612fbf565b60015b61271657612693613ebc565b8061269e57506126db565b806040517f08c379a00000000000000000000000000000000000000000000000000000000081526004016126d291906138ea565b60405180910390fd5b6040517f08c379a000000000000000000000000000000000000000000000000000000000815260040161270d9061390c565b60405180910390fd5b63bc197c8160e01b7bffffffffffffffffffffffffffffffffffffffffffffffffffffffff1916817bffffffffffffffffffffffffffffffffffffffffffffffffffffffff19161461279d576040517f08c379a00000000000000000000000000000000000000000000000000000000081526004016127949061392c565b60405180910390fd5b505b505050505050565b6000808273ffffffffffffffffffffffffffffffffffffffff16803b806020016040519081016040528181526000908060200190933c51119050919050565b8280546127f290613d96565b90600052602060002090601f016020900481019282612814576000855561285b565b82601f1061282d57805160ff191683800117855561285b565b8280016001018555821561285b579182015b8281111561285a57825182559160200191906001019061283f565b5b509050612868919061286c565b5090565b5b8082111561288557600081600090555060010161286d565b5090565b600061289c61289784613b61565b613b30565b905080838252602082019050828560208602820111156128bb57600080fd5b60005b858110156128eb57816128d188826129dd565b8452602084019350602083019250506001810190506128be565b5050509392505050565b600061290861290384613b8d565b613b30565b9050808382526020820190508285602086028201111561292757600080fd5b60005b85811015612957578161293d8882612ad9565b84526020840193506020830192505060018101905061292a565b5050509392505050565b600061297461296f84613bb9565b613b30565b90508281526020810184848401111561298c57600080fd5b612997848285613d54565b509392505050565b60006129b26129ad84613be9565b613b30565b9050828152602081018484840111156129ca57600080fd5b6129d5848285613d54565b509392505050565b6000813590506129ec81613f72565b92915050565b600082601f830112612a0357600080fd5b8135612a13848260208601612889565b91505092915050565b600082601f830112612a2d57600080fd5b8135612a3d8482602086016128f5565b91505092915050565b600081359050612a5581613f89565b92915050565b600081359050612a6a81613fa0565b92915050565b600081519050612a7f81613fa0565b92915050565b600082601f830112612a9657600080fd5b8135612aa6848260208601612961565b91505092915050565b600082601f830112612ac057600080fd5b8135612ad084826020860161299f565b91505092915050565b600081359050612ae881613fb7565b92915050565b600060208284031215612b0057600080fd5b6000612b0e848285016129dd565b91505092915050565b60008060408385031215612b2a57600080fd5b6000612b38858286016129dd565b9250506020612b49858286016129dd565b9150509250929050565b600080600080600060a08688031215612b6b57600080fd5b6000612b79888289016129dd565b9550506020612b8a888289016129dd565b945050604086013567ffffffffffffffff811115612ba757600080fd5b612bb388828901612a1c565b935050606086013567ffffffffffffffff811115612bd057600080fd5b612bdc88828901612a1c565b925050608086013567ffffffffffffffff811115612bf957600080fd5b612c0588828901612a85565b9150509295509295909350565b600080600080600060a08688031215612c2a57600080fd5b6000612c38888289016129dd565b9550506020612c49888289016129dd565b9450506040612c5a88828901612ad9565b9350506060612c6b88828901612ad9565b925050608086013567ffffffffffffffff811115612c8857600080fd5b612c9488828901612a85565b9150509295509295909350565b600080600060608486031215612cb657600080fd5b6000612cc4868287016129dd565b935050602084013567ffffffffffffffff811115612ce157600080fd5b612ced86828701612a1c565b925050604084013567ffffffffffffffff811115612d0a57600080fd5b612d1686828701612a1c565b9150509250925092565b600080600080600060a08688031215612d3857600080fd5b6000612d46888289016129dd565b955050602086013567ffffffffffffffff811115612d6357600080fd5b612d6f88828901612a1c565b945050604086013567ffffffffffffffff811115612d8c57600080fd5b612d9888828901612a1c565b935050606086013567ffffffffffffffff811115612db557600080fd5b612dc188828901612a1c565b925050608086013567ffffffffffffffff811115612dde57600080fd5b612dea88828901612a1c565b9150509295509295909350565b60008060408385031215612e0a57600080fd5b6000612e18858286016129dd565b9250506020612e2985828601612a46565b9150509250929050565b60008060408385031215612e4657600080fd5b6000612e54858286016129dd565b9250506020612e6585828601612ad9565b9150509250929050565b600080600060608486031215612e8457600080fd5b6000612e92868287016129dd565b9350506020612ea386828701612ad9565b9250506040612eb486828701612ad9565b9150509250925092565b60008060408385031215612ed157600080fd5b600083013567ffffffffffffffff811115612eeb57600080fd5b612ef7858286016129f2565b925050602083013567ffffffffffffffff811115612f1457600080fd5b612f2085828601612a1c565b9150509250929050565b60008060408385031215612f3d57600080fd5b600083013567ffffffffffffffff811115612f5757600080fd5b612f6385828601612a1c565b925050602083013567ffffffffffffffff811115612f8057600080fd5b612f8c85828601612a1c565b9150509250929050565b600060208284031215612fa857600080fd5b6000612fb684828501612a5b565b91505092915050565b600060208284031215612fd157600080fd5b6000612fdf84828501612a70565b91505092915050565b600060208284031215612ffa57600080fd5b600061300884828501612ad9565b91505092915050565b6000806040838503121561302457600080fd5b600061303285828601612ad9565b925050602083013567ffffffffffffffff81111561304f57600080fd5b61305b85828601612aaf565b9150509250929050565b6000806040838503121561307857600080fd5b600061308685828601612ad9565b925050602061309785828601612ad9565b9150509250929050565b60006130ad838361377b565b60208301905092915050565b6130c281613ce0565b82525050565b60006130d382613c29565b6130dd8185613c57565b93506130e883613c19565b8060005b8381101561311957815161310088826130a1565b975061310b83613c4a565b9250506001810190506130ec565b5085935050505092915050565b61312f81613cf2565b82525050565b600061314082613c34565b61314a8185613c68565b935061315a818560208601613d63565b61316381613e9e565b840191505092915050565b600061317982613c3f565b6131838185613c79565b9350613193818560208601613d63565b61319c81613e9e565b840191505092915050565b60006131b4603483613c79565b91507f455243313135353a207472616e7366657220746f206e6f6e204552433131353560008301527f526563656976657220696d706c656d656e7465720000000000000000000000006020830152604082019050919050565b600061321a602883613c79565b91507f455243313135353a204552433131353552656365697665722072656a6563746560008301527f6420746f6b656e730000000000000000000000000000000000000000000000006020830152604082019050919050565b6000613280602b83613c79565b91507f455243313135353a2062616c616e636520717565727920666f7220746865207a60008301527f65726f20616464726573730000000000000000000000000000000000000000006020830152604082019050919050565b60006132e6602683613c79565b91507f4f776e61626c653a206e6577206f776e657220697320746865207a65726f206160008301527f64647265737300000000000000000000000000000000000000000000000000006020830152604082019050919050565b600061334c602483613c79565b91507f455243313135353a206275726e20616d6f756e7420657863656564732062616c60008301527f616e6365000000000000000000000000000000000000000000000000000000006020830152604082019050919050565b60006133b2602983613c79565b91507f455243313135353a2063616c6c6572206973206e6f74206f776e6572206e6f7260008301527f20617070726f76656400000000000000000000000000000000000000000000006020830152604082019050919050565b6000613418602583613c79565b91507f455243313135353a207472616e7366657220746f20746865207a65726f20616460008301527f64726573730000000000000000000000000000000000000000000000000000006020830152604082019050919050565b600061347e603283613c79565b91507f455243313135353a207472616e736665722063616c6c6572206973206e6f742060008301527f6f776e6572206e6f7220617070726f76656400000000000000000000000000006020830152604082019050919050565b60006134e4602383613c79565b91507f455243313135353a206275726e2066726f6d20746865207a65726f206164647260008301527f65737300000000000000000000000000000000000000000000000000000000006020830152604082019050919050565b600061354a602a83613c79565b91507f455243313135353a20696e73756666696369656e742062616c616e636520666f60008301527f72207472616e73666572000000000000000000000000000000000000000000006020830152604082019050919050565b60006135b0602083613c79565b91507f4f776e61626c653a2063616c6c6572206973206e6f7420746865206f776e65726000830152602082019050919050565b60006135f0602983613c79565b91507f455243313135353a2073657474696e6720617070726f76616c2073746174757360008301527f20666f722073656c6600000000000000000000000000000000000000000000006020830152604082019050919050565b6000613656602983613c79565b91507f455243313135353a206163636f756e747320616e6420696473206c656e67746860008301527f206d69736d6174636800000000000000000000000000000000000000000000006020830152604082019050919050565b60006136bc602883613c79565b91507f455243313135353a2069647320616e6420616d6f756e7473206c656e6774682060008301527f6d69736d617463680000000000000000000000000000000000000000000000006020830152604082019050919050565b6000613722602183613c79565b91507f455243313135353a206d696e7420746f20746865207a65726f2061646472657360008301527f73000000000000000000000000000000000000000000000000000000000000006020830152604082019050919050565b61378481613d4a565b82525050565b61379381613d4a565b82525050565b60006020820190506137ae60008301846130b9565b92915050565b600060a0820190506137c960008301886130b9565b6137d660208301876130b9565b81810360408301526137e881866130c8565b905081810360608301526137fc81856130c8565b905081810360808301526138108184613135565b90509695505050505050565b600060a08201905061383160008301886130b9565b61383e60208301876130b9565b61384b604083018661378a565b613858606083018561378a565b818103608083015261386a8184613135565b90509695505050505050565b6000602082019050818103600083015261389081846130c8565b905092915050565b600060408201905081810360008301526138b281856130c8565b905081810360208301526138c681846130c8565b90509392505050565b60006020820190506138e46000830184613126565b92915050565b60006020820190508181036000830152613904818461316e565b905092915050565b60006020820190508181036000830152613925816131a7565b9050919050565b600060208201905081810360008301526139458161320d565b9050919050565b6000602082019050818103600083015261396581613273565b9050919050565b60006020820190508181036000830152613985816132d9565b9050919050565b600060208201905081810360008301526139a58161333f565b9050919050565b600060208201905081810360008301526139c5816133a5565b9050919050565b600060208201905081810360008301526139e58161340b565b9050919050565b60006020820190508181036000830152613a0581613471565b9050919050565b60006020820190508181036000830152613a25816134d7565b9050919050565b60006020820190508181036000830152613a458161353d565b9050919050565b60006020820190508181036000830152613a65816135a3565b9050919050565b60006020820190508181036000830152613a85816135e3565b9050919050565b60006020820190508181036000830152613aa581613649565b9050919050565b60006020820190508181036000830152613ac5816136af565b9050919050565b60006020820190508181036000830152613ae581613715565b9050919050565b6000602082019050613b01600083018461378a565b92915050565b6000604082019050613b1c600083018561378a565b613b29602083018461378a565b9392505050565b6000604051905081810181811067ffffffffffffffff82111715613b5757613b56613e6f565b5b8060405250919050565b600067ffffffffffffffff821115613b7c57613b7b613e6f565b5b602082029050602081019050919050565b600067ffffffffffffffff821115613ba857613ba7613e6f565b5b602082029050602081019050919050565b600067ffffffffffffffff821115613bd457613bd3613e6f565b5b601f19601f8301169050602081019050919050565b600067ffffffffffffffff821115613c0457613c03613e6f565b5b601f19601f8301169050602081019050919050565b6000819050602082019050919050565b600081519050919050565b600081519050919050565b600081519050919050565b6000602082019050919050565b600082825260208201905092915050565b600082825260208201905092915050565b600082825260208201905092915050565b6000613c9582613d4a565b9150613ca083613d4a565b9250827fffffffffffffffffffffffffffffffffffffffffffffffffffffffffffffffff03821115613cd557613cd4613e11565b5b828201905092915050565b6000613ceb82613d2a565b9050919050565b60008115159050919050565b60007fffffffff0000000000000000000000000000000000000000000000000000000082169050919050565b600073ffffffffffffffffffffffffffffffffffffffff82169050919050565b6000819050919050565b82818337600083830152505050565b60005b83811015613d81578082015181840152602081019050613d66565b83811115613d90576000848401525b50505050565b60006002820490506001821680613dae57607f821691505b60208210811415613dc257613dc1613e40565b5b50919050565b6000613dd382613d4a565b91507fffffffffffffffffffffffffffffffffffffffffffffffffffffffffffffffff821415613e0657613e05613e11565b5b600182019050919050565b7f4e487b7100000000000000000000000000000000000000000000000000000000600052601160045260246000fd5b7f4e487b7100000000000000000000000000000000000000000000000000000000600052602260045260246000fd5b7f4e487b7100000000000000000000000000000000000000000000000000000000600052604160045260246000fd5b6000601f19601f8301169050919050565b60008160e01c9050919050565b600060443d1015613ecc57613f6f565b60046000803e613edd600051613eaf565b6308c379a08114613eee5750613f6f565b60405160043d036004823e80513d602482011167ffffffffffffffff82111715613f1a57505050613f6f565b808201805167ffffffffffffffff811115613f39575050505050613f6f565b8060208301013d8501811115613f5457505050505050613f6f565b613f5d82613e9e565b60208401016040528296505050505050505b90565b613f7b81613ce0565b8114613f8657600080fd5b50565b613f9281613cf2565b8114613f9d57600080fd5b50565b613fa981613cfe565b8114613fb457600080fd5b50565b613fc081613d4a565b8114613fcb57600080fd5b5056fea2646970667358221220a820c4039fe91d31bfffcda4707149cb5c82905dde3a300286597ccd8ce6f86364736f6c63430008000033",
  "linkReferences": {},
  "deployedLinkReferences": {}
}