{
	"_format": "hh-sol-artifact-1",
	"contractName": "NFT",
	"sourceName": "contracts/NFT.sol",
	"abi": [
		{
			"inputs": [],
			"stateMutability": "nonpayable",
			"type": "constructor"
		},
		{
			"anonymous": false,
			"inputs": [
				{
					"indexed": true,
					"internalType": "address",
					"name": "account",
					"type": "address"
				},
				{
					"indexed": true,
					"internalType": "address",
					"name": "operator",
					"type": "address"
				},
				{
					"indexed": false,
					"internalType": "bool",
					"name": "approved",
					"type": "bool"
				}
			],
			"name": "ApprovalForAll",
			"type": "event"
		},
		{
			"anonymous": false,
			"inputs": [
				{
					"indexed": true,
					"internalType": "address",
					"name": "previousOwner",
					"type": "address"
				},
				{
					"indexed": true,
					"internalType": "address",
					"name": "newOwner",
					"type": "address"
				}
			],
			"name": "OwnershipTransferred",
			"type": "event"
		},
		{
			"anonymous": false,
			"inputs": [
				{
					"indexed": true,
					"internalType": "address",
					"name": "operator",
					"type": "address"
				},
				{
					"indexed": true,
					"internalType": "address",
					"name": "from",
					"type": "address"
				},
				{
					"indexed": true,
					"internalType": "address",
					"name": "to",
					"type": "address"
				},
				{
					"indexed": false,
					"internalType": "uint256[]",
					"name": "ids",
					"type": "uint256[]"
				},
				{
					"indexed": false,
					"internalType": "uint256[]",
					"name": "values",
					"type": "uint256[]"
				}
			],
			"name": "TransferBatch",
			"type": "event"
		},
		{
			"anonymous": false,
			"inputs": [
				{
					"indexed": true,
					"internalType": "address",
					"name": "operator",
					"type": "address"
				},
				{
					"indexed": true,
					"internalType": "address",
					"name": "from",
					"type": "address"
				},
				{
					"indexed": true,
					"internalType": "address",
					"name": "to",
					"type": "address"
				},
				{
					"indexed": false,
					"internalType": "uint256",
					"name": "id",
					"type": "uint256"
				},
				{
					"indexed": false,
					"internalType": "uint256",
					"name": "value",
					"type": "uint256"
				}
			],
			"name": "TransferSingle",
			"type": "event"
		},
		{
			"anonymous": false,
			"inputs": [
				{
					"indexed": false,
					"internalType": "string",
					"name": "value",
					"type": "string"
				},
				{
					"indexed": true,
					"internalType": "uint256",
					"name": "id",
					"type": "uint256"
				}
			],
			"name": "URI",
			"type": "event"
		},
		{
			"inputs": [
				{
					"internalType": "address",
					"name": "account",
					"type": "address"
				},
				{
					"internalType": "uint256",
					"name": "id",
					"type": "uint256"
				}
			],
			"name": "balanceOf",
			"outputs": [
				{
					"internalType": "uint256",
					"name": "",
					"type": "uint256"
				}
			],
			"stateMutability": "view",
			"type": "function"
		},
		{
			"inputs": [
				{
					"internalType": "address[]",
					"name": "accounts",
					"type": "address[]"
				},
				{
					"internalType": "uint256[]",
					"name": "ids",
					"type": "uint256[]"
				}
			],
			"name": "balanceOfBatch",
			"outputs": [
				{
					"internalType": "uint256[]",
					"name": "",
					"type": "uint256[]"
				}
			],
			"stateMutability": "view",
			"type": "function"
		},
		{
			"inputs": [
				{
					"internalType": "address",
					"name": "account",
					"type": "address"
				},
				{
					"internalType": "address",
					"name": "operator",
					"type": "address"
				}
			],
			"name": "isApprovedForAll",
			"outputs": [
				{
					"internalType": "bool",
					"name": "",
					"type": "bool"
				}
			],
			"stateMutability": "view",
			"type": "function"
		},
		{
			"inputs": [
				{
					"internalType": "address",
					"name": "recipient",
					"type": "address"
				},
				{
					"internalType": "uint256",
					"name": "tokenId",
					"type": "uint256"
				},
				{
					"internalType": "uint256",
					"name": "amount",
					"type": "uint256"
				}
			],
			"name": "mint",
			"outputs": [],
			"stateMutability": "nonpayable",
			"type": "function"
		},
		{
			"inputs": [],
			"name": "name",
			"outputs": [
				{
					"internalType": "string",
					"name": "",
					"type": "string"
				}
			],
			"stateMutability": "view",
			"type": "function"
		},
		{
			"inputs": [],
			"name": "owner",
			"outputs": [
				{
					"internalType": "address",
					"name": "",
					"type": "address"
				}
			],
			"stateMutability": "view",
			"type": "function"
		},
		{
			"inputs": [],
			"name": "renounceOwnership",
			"outputs": [],
			"stateMutability": "nonpayable",
			"type": "function"
		},
		{
			"inputs": [
				{
					"internalType": "address",
					"name": "from",
					"type": "address"
				},
				{
					"internalType": "address",
					"name": "to",
					"type": "address"
				},
				{
					"internalType": "uint256[]",
					"name": "ids",
					"type": "uint256[]"
				},
				{
					"internalType": "uint256[]",
					"name": "amounts",
					"type": "uint256[]"
				},
				{
					"internalType": "bytes",
					"name": "data",
					"type": "bytes"
				}
			],
			"name": "safeBatchTransferFrom",
			"outputs": [],
			"stateMutability": "nonpayable",
			"type": "function"
		},
		{
			"inputs": [
				{
					"internalType": "address",
					"name": "from",
					"type": "address"
				},
				{
					"internalType": "address",
					"name": "to",
					"type": "address"
				},
				{
					"internalType": "uint256",
					"name": "id",
					"type": "uint256"
				},
				{
					"internalType": "uint256",
					"name": "amount",
					"type": "uint256"
				},
				{
					"internalType": "bytes",
					"name": "data",
					"type": "bytes"
				}
			],
			"name": "safeTransferFrom",
			"outputs": [],
			"stateMutability": "nonpayable",
			"type": "function"
		},
		{
			"inputs": [
				{
					"internalType": "address",
					"name": "operator",
					"type": "address"
				},
				{
					"internalType": "bool",
					"name": "approved",
					"type": "bool"
				}
			],
			"name": "setApprovalForAll",
			"outputs": [],
			"stateMutability": "nonpayable",
			"type": "function"
		},
		{
			"inputs": [
				{
					"internalType": "uint256",
					"name": "_tokenId",
					"type": "uint256"
				},
				{
					"internalType": "string",
					"name": "_uri",
					"type": "string"
				}
			],
			"name": "setTokenUri",
			"outputs": [],
			"stateMutability": "nonpayable",
			"type": "function"
		},
		{
			"inputs": [
				{
					"internalType": "bytes4",
					"name": "interfaceId",
					"type": "bytes4"
				}
			],
			"name": "supportsInterface",
			"outputs": [
				{
					"internalType": "bool",
					"name": "",
					"type": "bool"
				}
			],
			"stateMutability": "view",
			"type": "function"
		},
		{
			"inputs": [],
			"name": "symbol",
			"outputs": [
				{
					"internalType": "string",
					"name": "",
					"type": "string"
				}
			],
			"stateMutability": "view",
			"type": "function"
		},
		{
			"inputs": [
				{
					"internalType": "address",
					"name": "newOwner",
					"type": "address"
				}
			],
			"name": "transferOwnership",
			"outputs": [],
			"stateMutability": "nonpayable",
			"type": "function"
		},
		{
			"inputs": [
				{
					"internalType": "address",
					"name": "_addr",
					"type": "address"
				},
				{
					"internalType": "uint256",
					"name": "_amount",
					"type": "uint256"
				}
			],
			"name": "updateWhitelist",
			"outputs": [],
			"stateMutability": "nonpayable",
			"type": "function"
		},
		{
			"inputs": [
				{
					"internalType": "uint256",
					"name": "tokenId",
					"type": "uint256"
				}
			],
			"name": "uri",
			"outputs": [
				{
					"internalType": "string",
					"name": "",
					"type": "string"
				}
			],
			"stateMutability": "view",
			"type": "function"
		},
		{
			"inputs": [
				{
					"internalType": "address",
					"name": "recipient",
					"type": "address"
				},
				{
					"internalType": "uint256",
					"name": "tokenId",
					"type": "uint256"
				},
				{
					"internalType": "uint256",
					"name": "amount",
					"type": "uint256"
				}
			],
			"name": "whitelistMint",
			"outputs": [],
			"stateMutability": "nonpayable",
			"type": "function"
		},
		{
			"inputs": [
				{
					"internalType": "address",
					"name": "",
					"type": "address"
				}
			],
			"name": "whitelistedAddresses",
			"outputs": [
				{
					"internalType": "uint256",
					"name": "",
					"type": "uint256"
				}
			],
			"stateMutability": "view",
			"type": "function"
		}
	],
	"bytecode": "0x60806040523480156200001157600080fd5b50604051806020016040528060008152506200003381620000f660201b60201c565b5062000054620000486200011260201b60201c565b6200011a60201b60201c565b6040518060400160405280600c81526020017f5072756562614e4654526566000000000000000000000000000000000000000081525060069080519060200190620000a1929190620001e0565b506040518060400160405280600581526020017f503131353500000000000000000000000000000000000000000000000000000081525060079080519060200190620000ef929190620001e0565b50620002f5565b80600290805190602001906200010e929190620001e0565b5050565b600033905090565b6000600360009054906101000a900473ffffffffffffffffffffffffffffffffffffffff16905081600360006101000a81548173ffffffffffffffffffffffffffffffffffffffff021916908373ffffffffffffffffffffffffffffffffffffffff1602179055508173ffffffffffffffffffffffffffffffffffffffff168173ffffffffffffffffffffffffffffffffffffffff167f8be0079c531659141344cd1fd0a4f28419497f9722a3daafe3b4186f6b6457e060405160405180910390a35050565b828054620001ee9062000290565b90600052602060002090601f0160209004810192826200021257600085556200025e565b82601f106200022d57805160ff19168380011785556200025e565b828001600101855582156200025e579182015b828111156200025d57825182559160200191906001019062000240565b5b5090506200026d919062000271565b5090565b5b808211156200028c57600081600090555060010162000272565b5090565b60006002820490506001821680620002a957607f821691505b60208210811415620002c057620002bf620002c6565b5b50919050565b7f4e487b7100000000000000000000000000000000000000000000000000000000600052602260045260246000fd5b61351d80620003056000396000f3fe608060405234801561001057600080fd5b50600436106101155760003560e01c806357f7789e116100a257806395d89b411161007157806395d89b41146102dc578063a22cb465146102fa578063e985e9c514610316578063f242432a14610346578063f2fde38b1461036257610115565b806357f7789e1461027c5780635ee32a1114610298578063715018a6146102b45780638da5cb5b146102be57610115565b80630e89341c116100e95780630e89341c146101c8578063156e29f6146101f85780631a73293d146102145780632eb2c2d6146102305780634e1273f41461024c57610115565b8062fdd58e1461011a57806301ffc9a71461014a57806306c933d81461017a57806306fdde03146101aa575b600080fd5b610134600480360381019061012f91906122bf565b61037e565b6040516101419190612b31565b60405180910390f35b610164600480360381019061015f91906123ca565b610447565b6040516101719190612914565b60405180910390f35b610194600480360381019061018f91906120ac565b610529565b6040516101a19190612b31565b60405180910390f35b6101b2610541565b6040516101bf919061292f565b60405180910390f35b6101e260048036038101906101dd9190612424565b6105cf565b6040516101ef919061292f565b60405180910390f35b610212600480360381019061020d91906122ff565b610674565b005b61022e600480360381019061022991906122bf565b610710565b005b61024a60048036038101906102459190612119565b6107d4565b005b61026660048036038101906102619190612352565b610875565b60405161027391906128bb565b60405180910390f35b61029660048036038101906102919190612451565b61098e565b005b6102b260048036038101906102ad91906122ff565b610a36565b005b6102bc610b72565b005b6102c6610bfa565b6040516102d391906127de565b60405180910390f35b6102e4610c24565b6040516102f1919061292f565b60405180910390f35b610314600480360381019061030f919061227f565b610cb2565b005b610330600480360381019061032b91906120d9565b610cc8565b60405161033d9190612914565b60405180910390f35b610360600480360381019061035b91906121e8565b610d5c565b005b61037c600480360381019061037791906120ac565b610dfd565b005b60008073ffffffffffffffffffffffffffffffffffffffff168373ffffffffffffffffffffffffffffffffffffffff1614156103ef576040517f08c379a00000000000000000000000000000000000000000000000000000000081526004016103e690612991565b60405180910390fd5b60008083815260200190815260200160002060008473ffffffffffffffffffffffffffffffffffffffff1673ffffffffffffffffffffffffffffffffffffffff16815260200190815260200160002054905092915050565b60007fd9b67a26000000000000000000000000000000000000000000000000000000007bffffffffffffffffffffffffffffffffffffffffffffffffffffffff1916827bffffffffffffffffffffffffffffffffffffffffffffffffffffffff1916148061051257507f0e89341c000000000000000000000000000000000000000000000000000000007bffffffffffffffffffffffffffffffffffffffffffffffffffffffff1916827bffffffffffffffffffffffffffffffffffffffffffffffffffffffff1916145b80610522575061052182610ef5565b5b9050919050565b60056020528060005260406000206000915090505481565b6006805461054e90612e05565b80601f016020809104026020016040519081016040528092919081815260200182805461057a90612e05565b80156105c75780601f1061059c576101008083540402835291602001916105c7565b820191906000526020600020905b8154815290600101906020018083116105aa57829003601f168201915b505050505081565b60606004600083815260200190815260200160002080546105ef90612e05565b80601f016020809104026020016040519081016040528092919081815260200182805461061b90612e05565b80156106685780601f1061063d57610100808354040283529160200191610668565b820191906000526020600020905b81548152906001019060200180831161064b57829003601f168201915b50505050509050919050565b61067c610f5f565b73ffffffffffffffffffffffffffffffffffffffff1661069a610bfa565b73ffffffffffffffffffffffffffffffffffffffff16146106f0576040517f08c379a00000000000000000000000000000000000000000000000000000000081526004016106e790612a71565b60405180910390fd5b61070b83838360405180602001604052806000815250610f67565b505050565b610718610f5f565b73ffffffffffffffffffffffffffffffffffffffff16610736610bfa565b73ffffffffffffffffffffffffffffffffffffffff161461078c576040517f08c379a000000000000000000000000000000000000000000000000000000000815260040161078390612a71565b60405180910390fd5b80600560008473ffffffffffffffffffffffffffffffffffffffff1673ffffffffffffffffffffffffffffffffffffffff168152602001908152602001600020819055505050565b6107dc610f5f565b73ffffffffffffffffffffffffffffffffffffffff168573ffffffffffffffffffffffffffffffffffffffff16148061082257506108218561081c610f5f565b610cc8565b5b610861576040517f08c379a000000000000000000000000000000000000000000000000000000000815260040161085890612a31565b60405180910390fd5b61086e8585858585611118565b5050505050565b606081518351146108bb576040517f08c379a00000000000000000000000000000000000000000000000000000000081526004016108b290612ad1565b60405180910390fd5b6000835167ffffffffffffffff8111156108d8576108d7612f3e565b5b6040519080825280602002602001820160405280156109065781602001602082028036833780820191505090505b50905060005b84518110156109835761095385828151811061092b5761092a612f0f565b5b602002602001015185838151811061094657610945612f0f565b5b602002602001015161037e565b82828151811061096657610965612f0f565b5b6020026020010181815250508061097c90612e68565b905061090c565b508091505092915050565b610996610f5f565b73ffffffffffffffffffffffffffffffffffffffff166109b4610bfa565b73ffffffffffffffffffffffffffffffffffffffff1614610a0a576040517f08c379a0000000000000000000000000000000000000000000000000000000008152600401610a0190612a71565b60405180910390fd5b80600460008481526020019081526020016000209080519060200190610a31929190611d84565b505050565b6001811015610a7a576040517f08c379a0000000000000000000000000000000000000000000000000000000008152600401610a71906129f1565b60405180910390fd5b80600560003373ffffffffffffffffffffffffffffffffffffffff1673ffffffffffffffffffffffffffffffffffffffff168152602001908152602001600020541015610afc576040517f08c379a0000000000000000000000000000000000000000000000000000000008152600401610af390612a91565b60405180910390fd5b610b1783838360405180602001604052806000815250610f67565b80600560003373ffffffffffffffffffffffffffffffffffffffff1673ffffffffffffffffffffffffffffffffffffffff1681526020019081526020016000206000828254610b669190612d1b565b92505081905550505050565b610b7a610f5f565b73ffffffffffffffffffffffffffffffffffffffff16610b98610bfa565b73ffffffffffffffffffffffffffffffffffffffff1614610bee576040517f08c379a0000000000000000000000000000000000000000000000000000000008152600401610be590612a71565b60405180910390fd5b610bf8600061143a565b565b6000600360009054906101000a900473ffffffffffffffffffffffffffffffffffffffff16905090565b60078054610c3190612e05565b80601f0160208091040260200160405190810160405280929190818152602001828054610c5d90612e05565b8015610caa5780601f10610c7f57610100808354040283529160200191610caa565b820191906000526020600020905b815481529060010190602001808311610c8d57829003601f168201915b505050505081565b610cc4610cbd610f5f565b8383611500565b5050565b6000600160008473ffffffffffffffffffffffffffffffffffffffff1673ffffffffffffffffffffffffffffffffffffffff16815260200190815260200160002060008373ffffffffffffffffffffffffffffffffffffffff1673ffffffffffffffffffffffffffffffffffffffff16815260200190815260200160002060009054906101000a900460ff16905092915050565b610d64610f5f565b73ffffffffffffffffffffffffffffffffffffffff168573ffffffffffffffffffffffffffffffffffffffff161480610daa5750610da985610da4610f5f565b610cc8565b5b610de9576040517f08c379a0000000000000000000000000000000000000000000000000000000008152600401610de0906129d1565b60405180910390fd5b610df6858585858561166d565b5050505050565b610e05610f5f565b73ffffffffffffffffffffffffffffffffffffffff16610e23610bfa565b73ffffffffffffffffffffffffffffffffffffffff1614610e79576040517f08c379a0000000000000000000000000000000000000000000000000000000008152600401610e7090612a71565b60405180910390fd5b600073ffffffffffffffffffffffffffffffffffffffff168173ffffffffffffffffffffffffffffffffffffffff161415610ee9576040517f08c379a0000000000000000000000000000000000000000000000000000000008152600401610ee0906129b1565b60405180910390fd5b610ef28161143a565b50565b60007f01ffc9a7000000000000000000000000000000000000000000000000000000007bffffffffffffffffffffffffffffffffffffffffffffffffffffffff1916827bffffffffffffffffffffffffffffffffffffffffffffffffffffffff1916149050919050565b600033905090565b600073ffffffffffffffffffffffffffffffffffffffff168473ffffffffffffffffffffffffffffffffffffffff161415610fd7576040517f08c379a0000000000000000000000000000000000000000000000000000000008152600401610fce90612b11565b60405180910390fd5b6000610fe1610f5f565b90506000610fee85611909565b90506000610ffb85611909565b905061100c83600089858589611983565b8460008088815260200190815260200160002060008973ffffffffffffffffffffffffffffffffffffffff1673ffffffffffffffffffffffffffffffffffffffff168152602001908152602001600020600082825461106b9190612cc5565b925050819055508673ffffffffffffffffffffffffffffffffffffffff16600073ffffffffffffffffffffffffffffffffffffffff168473ffffffffffffffffffffffffffffffffffffffff167fc3d58168c5ae7397731d063d5bbf3d657854427343f4c083240f7aacaa2d0f6289896040516110e9929190612b4c565b60405180910390a46111008360008985858961198b565b61110f83600089898989611993565b50505050505050565b815183511461115c576040517f08c379a000000000000000000000000000000000000000000000000000000000815260040161115390612af1565b60405180910390fd5b600073ffffffffffffffffffffffffffffffffffffffff168473ffffffffffffffffffffffffffffffffffffffff1614156111cc576040517f08c379a00000000000000000000000000000000000000000000000000000000081526004016111c390612a11565b60405180910390fd5b60006111d6610f5f565b90506111e6818787878787611983565b60005b845181101561139757600085828151811061120757611206612f0f565b5b60200260200101519050600085838151811061122657611225612f0f565b5b60200260200101519050600080600084815260200190815260200160002060008b73ffffffffffffffffffffffffffffffffffffffff1673ffffffffffffffffffffffffffffffffffffffff168152602001908152602001600020549050818110156112c7576040517f08c379a00000000000000000000000000000000000000000000000000000000081526004016112be90612a51565b60405180910390fd5b81810360008085815260200190815260200160002060008c73ffffffffffffffffffffffffffffffffffffffff1673ffffffffffffffffffffffffffffffffffffffff168152602001908152602001600020819055508160008085815260200190815260200160002060008b73ffffffffffffffffffffffffffffffffffffffff1673ffffffffffffffffffffffffffffffffffffffff168152602001908152602001600020600082825461137c9190612cc5565b925050819055505050508061139090612e68565b90506111e9565b508473ffffffffffffffffffffffffffffffffffffffff168673ffffffffffffffffffffffffffffffffffffffff168273ffffffffffffffffffffffffffffffffffffffff167f4a39dc06d4c0dbc64b70af90fd698a233a518aa5d07e595d983b8c0526c8f7fb878760405161140e9291906128dd565b60405180910390a461142481878787878761198b565b611432818787878787611b7a565b505050505050565b6000600360009054906101000a900473ffffffffffffffffffffffffffffffffffffffff16905081600360006101000a81548173ffffffffffffffffffffffffffffffffffffffff021916908373ffffffffffffffffffffffffffffffffffffffff1602179055508173ffffffffffffffffffffffffffffffffffffffff168173ffffffffffffffffffffffffffffffffffffffff167f8be0079c531659141344cd1fd0a4f28419497f9722a3daafe3b4186f6b6457e060405160405180910390a35050565b8173ffffffffffffffffffffffffffffffffffffffff168373ffffffffffffffffffffffffffffffffffffffff16141561156f576040517f08c379a000000000000000000000000000000000000000000000000000000000815260040161156690612ab1565b60405180910390fd5b80600160008573ffffffffffffffffffffffffffffffffffffffff1673ffffffffffffffffffffffffffffffffffffffff16815260200190815260200160002060008473ffffffffffffffffffffffffffffffffffffffff1673ffffffffffffffffffffffffffffffffffffffff16815260200190815260200160002060006101000a81548160ff0219169083151502179055508173ffffffffffffffffffffffffffffffffffffffff168373ffffffffffffffffffffffffffffffffffffffff167f17307eab39ab6107e8899845ad3d59bd9653f200f220920489ca2b5937696c31836040516116609190612914565b60405180910390a3505050565b600073ffffffffffffffffffffffffffffffffffffffff168473ffffffffffffffffffffffffffffffffffffffff1614156116dd576040517f08c379a00000000000000000000000000000000000000000000000000000000081526004016116d490612a11565b60405180910390fd5b60006116e7610f5f565b905060006116f485611909565b9050600061170185611909565b9050611711838989858589611983565b600080600088815260200190815260200160002060008a73ffffffffffffffffffffffffffffffffffffffff1673ffffffffffffffffffffffffffffffffffffffff168152602001908152602001600020549050858110156117a8576040517f08c379a000000000000000000000000000000000000000000000000000000000815260040161179f90612a51565b60405180910390fd5b85810360008089815260200190815260200160002060008b73ffffffffffffffffffffffffffffffffffffffff1673ffffffffffffffffffffffffffffffffffffffff168152602001908152602001600020819055508560008089815260200190815260200160002060008a73ffffffffffffffffffffffffffffffffffffffff1673ffffffffffffffffffffffffffffffffffffffff168152602001908152602001600020600082825461185d9190612cc5565b925050819055508773ffffffffffffffffffffffffffffffffffffffff168973ffffffffffffffffffffffffffffffffffffffff168573ffffffffffffffffffffffffffffffffffffffff167fc3d58168c5ae7397731d063d5bbf3d657854427343f4c083240f7aacaa2d0f628a8a6040516118da929190612b4c565b60405180910390a46118f0848a8a86868a61198b565b6118fe848a8a8a8a8a611993565b505050505050505050565b60606000600167ffffffffffffffff81111561192857611927612f3e565b5b6040519080825280602002602001820160405280156119565781602001602082028036833780820191505090505b509050828160008151811061196e5761196d612f0f565b5b60200260200101818152505080915050919050565b505050505050565b505050505050565b6119b28473ffffffffffffffffffffffffffffffffffffffff16611d61565b15611b72578373ffffffffffffffffffffffffffffffffffffffff1663f23a6e6187878686866040518663ffffffff1660e01b81526004016119f8959493929190612861565b602060405180830381600087803b158015611a1257600080fd5b505af1925050508015611a4357506040513d601f19601f82011682018060405250810190611a4091906123f7565b60015b611ae957611a4f612f6d565b806308c379a01415611aac5750611a646133f5565b80611a6f5750611aae565b806040517f08c379a0000000000000000000000000000000000000000000000000000000008152600401611aa3919061292f565b60405180910390fd5b505b6040517f08c379a0000000000000000000000000000000000000000000000000000000008152600401611ae090612951565b60405180910390fd5b63f23a6e6160e01b7bffffffffffffffffffffffffffffffffffffffffffffffffffffffff1916817bffffffffffffffffffffffffffffffffffffffffffffffffffffffff191614611b70576040517f08c379a0000000000000000000000000000000000000000000000000000000008152600401611b6790612971565b60405180910390fd5b505b505050505050565b611b998473ffffffffffffffffffffffffffffffffffffffff16611d61565b15611d59578373ffffffffffffffffffffffffffffffffffffffff1663bc197c8187878686866040518663ffffffff1660e01b8152600401611bdf9594939291906127f9565b602060405180830381600087803b158015611bf957600080fd5b505af1925050508015611c2a57506040513d601f19601f82011682018060405250810190611c2791906123f7565b60015b611cd057611c36612f6d565b806308c379a01415611c935750611c4b6133f5565b80611c565750611c95565b806040517f08c379a0000000000000000000000000000000000000000000000000000000008152600401611c8a919061292f565b60405180910390fd5b505b6040517f08c379a0000000000000000000000000000000000000000000000000000000008152600401611cc790612951565b60405180910390fd5b63bc197c8160e01b7bffffffffffffffffffffffffffffffffffffffffffffffffffffffff1916817bffffffffffffffffffffffffffffffffffffffffffffffffffffffff191614611d57576040517f08c379a0000000000000000000000000000000000000000000000000000000008152600401611d4e90612971565b60405180910390fd5b505b505050505050565b6000808273ffffffffffffffffffffffffffffffffffffffff163b119050919050565b828054611d9090612e05565b90600052602060002090601f016020900481019282611db25760008555611df9565b82601f10611dcb57805160ff1916838001178555611df9565b82800160010185558215611df9579182015b82811115611df8578251825591602001919060010190611ddd565b5b509050611e069190611e0a565b5090565b5b80821115611e23576000816000905550600101611e0b565b5090565b6000611e3a611e3584612b9a565b612b75565b90508083825260208201905082856020860282011115611e5d57611e5c612f94565b5b60005b85811015611e8d5781611e738882611f8b565b845260208401935060208301925050600181019050611e60565b5050509392505050565b6000611eaa611ea584612bc6565b612b75565b90508083825260208201905082856020860282011115611ecd57611ecc612f94565b5b60005b85811015611efd5781611ee38882612097565b845260208401935060208301925050600181019050611ed0565b5050509392505050565b6000611f1a611f1584612bf2565b612b75565b905082815260208101848484011115611f3657611f35612f99565b5b611f41848285612dc3565b509392505050565b6000611f5c611f5784612c23565b612b75565b905082815260208101848484011115611f7857611f77612f99565b5b611f83848285612dc3565b509392505050565b600081359050611f9a8161348b565b92915050565b600082601f830112611fb557611fb4612f8f565b5b8135611fc5848260208601611e27565b91505092915050565b600082601f830112611fe357611fe2612f8f565b5b8135611ff3848260208601611e97565b91505092915050565b60008135905061200b816134a2565b92915050565b600081359050612020816134b9565b92915050565b600081519050612035816134b9565b92915050565b600082601f8301126120505761204f612f8f565b5b8135612060848260208601611f07565b91505092915050565b600082601f83011261207e5761207d612f8f565b5b813561208e848260208601611f49565b91505092915050565b6000813590506120a6816134d0565b92915050565b6000602082840312156120c2576120c1612fa3565b5b60006120d084828501611f8b565b91505092915050565b600080604083850312156120f0576120ef612fa3565b5b60006120fe85828601611f8b565b925050602061210f85828601611f8b565b9150509250929050565b600080600080600060a0868803121561213557612134612fa3565b5b600061214388828901611f8b565b955050602061215488828901611f8b565b945050604086013567ffffffffffffffff81111561217557612174612f9e565b5b61218188828901611fce565b935050606086013567ffffffffffffffff8111156121a2576121a1612f9e565b5b6121ae88828901611fce565b925050608086013567ffffffffffffffff8111156121cf576121ce612f9e565b5b6121db8882890161203b565b9150509295509295909350565b600080600080600060a0868803121561220457612203612fa3565b5b600061221288828901611f8b565b955050602061222388828901611f8b565b945050604061223488828901612097565b935050606061224588828901612097565b925050608086013567ffffffffffffffff81111561226657612265612f9e565b5b6122728882890161203b565b9150509295509295909350565b6000806040838503121561229657612295612fa3565b5b60006122a485828601611f8b565b92505060206122b585828601611ffc565b9150509250929050565b600080604083850312156122d6576122d5612fa3565b5b60006122e485828601611f8b565b92505060206122f585828601612097565b9150509250929050565b60008060006060848603121561231857612317612fa3565b5b600061232686828701611f8b565b935050602061233786828701612097565b925050604061234886828701612097565b9150509250925092565b6000806040838503121561236957612368612fa3565b5b600083013567ffffffffffffffff81111561238757612386612f9e565b5b61239385828601611fa0565b925050602083013567ffffffffffffffff8111156123b4576123b3612f9e565b5b6123c085828601611fce565b9150509250929050565b6000602082840312156123e0576123df612fa3565b5b60006123ee84828501612011565b91505092915050565b60006020828403121561240d5761240c612fa3565b5b600061241b84828501612026565b91505092915050565b60006020828403121561243a57612439612fa3565b5b600061244884828501612097565b91505092915050565b6000806040838503121561246857612467612fa3565b5b600061247685828601612097565b925050602083013567ffffffffffffffff81111561249757612496612f9e565b5b6124a385828601612069565b9150509250929050565b60006124b983836127c0565b60208301905092915050565b6124ce81612d4f565b82525050565b60006124df82612c64565b6124e98185612c92565b93506124f483612c54565b8060005b8381101561252557815161250c88826124ad565b975061251783612c85565b9250506001810190506124f8565b5085935050505092915050565b61253b81612d61565b82525050565b600061254c82612c6f565b6125568185612ca3565b9350612566818560208601612dd2565b61256f81612fa8565b840191505092915050565b600061258582612c7a565b61258f8185612cb4565b935061259f818560208601612dd2565b6125a881612fa8565b840191505092915050565b60006125c0603483612cb4565b91506125cb82612fc6565b604082019050919050565b60006125e3602883612cb4565b91506125ee82613015565b604082019050919050565b6000612606602b83612cb4565b915061261182613064565b604082019050919050565b6000612629602683612cb4565b9150612634826130b3565b604082019050919050565b600061264c602983612cb4565b915061265782613102565b604082019050919050565b600061266f600c83612cb4565b915061267a82613151565b602082019050919050565b6000612692602583612cb4565b915061269d8261317a565b604082019050919050565b60006126b5603283612cb4565b91506126c0826131c9565b604082019050919050565b60006126d8602a83612cb4565b91506126e382613218565b604082019050919050565b60006126fb602083612cb4565b915061270682613267565b602082019050919050565b600061271e600f83612cb4565b915061272982613290565b602082019050919050565b6000612741602983612cb4565b915061274c826132b9565b604082019050919050565b6000612764602983612cb4565b915061276f82613308565b604082019050919050565b6000612787602883612cb4565b915061279282613357565b604082019050919050565b60006127aa602183612cb4565b91506127b5826133a6565b604082019050919050565b6127c981612db9565b82525050565b6127d881612db9565b82525050565b60006020820190506127f360008301846124c5565b92915050565b600060a08201905061280e60008301886124c5565b61281b60208301876124c5565b818103604083015261282d81866124d4565b9050818103606083015261284181856124d4565b905081810360808301526128558184612541565b90509695505050505050565b600060a08201905061287660008301886124c5565b61288360208301876124c5565b61289060408301866127cf565b61289d60608301856127cf565b81810360808301526128af8184612541565b90509695505050505050565b600060208201905081810360008301526128d581846124d4565b905092915050565b600060408201905081810360008301526128f781856124d4565b9050818103602083015261290b81846124d4565b90509392505050565b60006020820190506129296000830184612532565b92915050565b60006020820190508181036000830152612949818461257a565b905092915050565b6000602082019050818103600083015261296a816125b3565b9050919050565b6000602082019050818103600083015261298a816125d6565b9050919050565b600060208201905081810360008301526129aa816125f9565b9050919050565b600060208201905081810360008301526129ca8161261c565b9050919050565b600060208201905081810360008301526129ea8161263f565b9050919050565b60006020820190508181036000830152612a0a81612662565b9050919050565b60006020820190508181036000830152612a2a81612685565b9050919050565b60006020820190508181036000830152612a4a816126a8565b9050919050565b60006020820190508181036000830152612a6a816126cb565b9050919050565b60006020820190508181036000830152612a8a816126ee565b9050919050565b60006020820190508181036000830152612aaa81612711565b9050919050565b60006020820190508181036000830152612aca81612734565b9050919050565b60006020820190508181036000830152612aea81612757565b9050919050565b60006020820190508181036000830152612b0a8161277a565b9050919050565b60006020820190508181036000830152612b2a8161279d565b9050919050565b6000602082019050612b4660008301846127cf565b92915050565b6000604082019050612b6160008301856127cf565b612b6e60208301846127cf565b9392505050565b6000612b7f612b90565b9050612b8b8282612e37565b919050565b6000604051905090565b600067ffffffffffffffff821115612bb557612bb4612f3e565b5b602082029050602081019050919050565b600067ffffffffffffffff821115612be157612be0612f3e565b5b602082029050602081019050919050565b600067ffffffffffffffff821115612c0d57612c0c612f3e565b5b612c1682612fa8565b9050602081019050919050565b600067ffffffffffffffff821115612c3e57612c3d612f3e565b5b612c4782612fa8565b9050602081019050919050565b6000819050602082019050919050565b600081519050919050565b600081519050919050565b600081519050919050565b6000602082019050919050565b600082825260208201905092915050565b600082825260208201905092915050565b600082825260208201905092915050565b6000612cd082612db9565b9150612cdb83612db9565b9250827fffffffffffffffffffffffffffffffffffffffffffffffffffffffffffffffff03821115612d1057612d0f612eb1565b5b828201905092915050565b6000612d2682612db9565b9150612d3183612db9565b925082821015612d4457612d43612eb1565b5b828203905092915050565b6000612d5a82612d99565b9050919050565b60008115159050919050565b60007fffffffff0000000000000000000000000000000000000000000000000000000082169050919050565b600073ffffffffffffffffffffffffffffffffffffffff82169050919050565b6000819050919050565b82818337600083830152505050565b60005b83811015612df0578082015181840152602081019050612dd5565b83811115612dff576000848401525b50505050565b60006002820490506001821680612e1d57607f821691505b60208210811415612e3157612e30612ee0565b5b50919050565b612e4082612fa8565b810181811067ffffffffffffffff82111715612e5f57612e5e612f3e565b5b80604052505050565b6000612e7382612db9565b91507fffffffffffffffffffffffffffffffffffffffffffffffffffffffffffffffff821415612ea657612ea5612eb1565b5b600182019050919050565b7f4e487b7100000000000000000000000000000000000000000000000000000000600052601160045260246000fd5b7f4e487b7100000000000000000000000000000000000000000000000000000000600052602260045260246000fd5b7f4e487b7100000000000000000000000000000000000000000000000000000000600052603260045260246000fd5b7f4e487b7100000000000000000000000000000000000000000000000000000000600052604160045260246000fd5b600060033d1115612f8c5760046000803e612f89600051612fb9565b90505b90565b600080fd5b600080fd5b600080fd5b600080fd5b600080fd5b6000601f19601f8301169050919050565b60008160e01c9050919050565b7f455243313135353a207472616e7366657220746f206e6f6e204552433131353560008201527f526563656976657220696d706c656d656e746572000000000000000000000000602082015250565b7f455243313135353a204552433131353552656365697665722072656a6563746560008201527f6420746f6b656e73000000000000000000000000000000000000000000000000602082015250565b7f455243313135353a2062616c616e636520717565727920666f7220746865207a60008201527f65726f2061646472657373000000000000000000000000000000000000000000602082015250565b7f4f776e61626c653a206e6577206f776e657220697320746865207a65726f206160008201527f6464726573730000000000000000000000000000000000000000000000000000602082015250565b7f455243313135353a2063616c6c6572206973206e6f74206f776e6572206e6f7260008201527f20617070726f7665640000000000000000000000000000000000000000000000602082015250565b7f77726f6e6720616d6f756e740000000000000000000000000000000000000000600082015250565b7f455243313135353a207472616e7366657220746f20746865207a65726f20616460008201527f6472657373000000000000000000000000000000000000000000000000000000602082015250565b7f455243313135353a207472616e736665722063616c6c6572206973206e6f742060008201527f6f776e6572206e6f7220617070726f7665640000000000000000000000000000602082015250565b7f455243313135353a20696e73756666696369656e742062616c616e636520666f60008201527f72207472616e7366657200000000000000000000000000000000000000000000602082015250565b7f4f776e61626c653a2063616c6c6572206973206e6f7420746865206f776e6572600082015250565b7f6e6f742077686974656c69737465640000000000000000000000000000000000600082015250565b7f455243313135353a2073657474696e6720617070726f76616c2073746174757360008201527f20666f722073656c660000000000000000000000000000000000000000000000602082015250565b7f455243313135353a206163636f756e747320616e6420696473206c656e67746860008201527f206d69736d617463680000000000000000000000000000000000000000000000602082015250565b7f455243313135353a2069647320616e6420616d6f756e7473206c656e6774682060008201527f6d69736d61746368000000000000000000000000000000000000000000000000602082015250565b7f455243313135353a206d696e7420746f20746865207a65726f2061646472657360008201527f7300000000000000000000000000000000000000000000000000000000000000602082015250565b600060443d101561340557613488565b61340d612b90565b60043d036004823e80513d602482011167ffffffffffffffff82111715613435575050613488565b808201805167ffffffffffffffff8111156134535750505050613488565b80602083010160043d038501811115613470575050505050613488565b61347f82602001850186612e37565b82955050505050505b90565b61349481612d4f565b811461349f57600080fd5b50565b6134ab81612d61565b81146134b657600080fd5b50565b6134c281612d6d565b81146134cd57600080fd5b50565b6134d981612db9565b81146134e457600080fd5b5056fea26469706673582212201ed724877348d73d614a417a1596e2cf65bd49ba73216a1a61039fe94d1b60bf64736f6c63430008070033",
	"linkReferences": {},
	"deployedLinkReferences": {}
}